8=FIX.4.4|9=99|35=A|34=1|49=CLIENT-Thomas|52=20151109-15:47:27.133|56=BTCC-PRO-EXCHANGE-SERVER|98=0|108=300|141=Y|10=111|