8=FIX.4.4|9=104|35=A|34=1|49=CLIENT-ThomasToday|52=20151125-07:52:41.721|56=BTCC-PRO-EXCHANGE-SERVER|98=0|108=300|141=Y|10=141|8=FIX.4.4|9=257|35=AF|34=2|49=CLIENT-ThomasToday|52=20151125-07:52:41.867|56=BTCC-PRO-EXCHANGE-SERVER|1=1448437730656000:Basic NjQ0NmZhODMtODAzZS00MmYwLTk4NmItZGZiMjczZTE4MTA3OjViYWM0MTZmZDZiYTJlOTFjNWZjODA5ZjI0MzEzYzYwMTJlNDVmNTk=|54=1|55=XBTCNY|584=reqID1298699096|585=7|10=097|8=FIX.4.4|9=160|35=3|34=3|49=CLIENT-ThomasToday|52=20151125-07:52:42.400|56=BTCC-PRO-EXCHANGE-SERVER|45=10|58=Value is incorrect (out of range) for this tag|371=39|372=8|373=5|10=138|8=FIX.4.4|9=161|35=3|34=4|49=CLIENT-ThomasToday|52=20151125-07:52:42.666|56=BTCC-PRO-EXCHANGE-SERVER|45=100|58=Value is incorrect (out of range) for this tag|371=39|372=8|373=5|10=202|8=FIX.4.4|9=161|35=3|34=5|49=CLIENT-ThomasToday|52=20151125-07:52:42.686|56=BTCC-PRO-EXCHANGE-SERVER|45=118|58=Value is incorrect (out of range) for this tag|371=39|372=8|373=5|10=214|8=FIX.4.4|9=161|35=3|34=6|49=CLIENT-ThomasToday|52=20151125-07:52:42.736|56=BTCC-PRO-EXCHANGE-SERVER|45=119|58=Value is incorrect (out of range) for this tag|371=39|372=8|373=5|10=212|8=FIX.4.4|9=161|35=3|34=7|49=CLIENT-ThomasToday|52=20151125-07:52:42.783|56=BTCC-PRO-EXCHANGE-SERVER|45=182|58=Value is incorrect (out of range) for this tag|371=39|372=8|373=5|10=215|8=FIX.4.4|9=161|35=3|34=8|49=CLIENT-ThomasToday|52=20151125-07:52:42.954|56=BTCC-PRO-EXCHANGE-SERVER|45=327|58=Value is incorrect (out of range) for this tag|371=39|372=8|373=5|10=217|8=FIX.4.4|9=161|35=3|34=9|49=CLIENT-ThomasToday|52=20151125-07:52:42.969|56=BTCC-PRO-EXCHANGE-SERVER|45=337|58=Value is incorrect (out of range) for this tag|371=39|372=8|373=5|10=225|