8=FIX.4.4|9=95|35=A|34=1|49=CLIENT255|52=20151108-10:33:36.746|56=BTCC-PRO-EXCHANGE-SERVER|98=0|108=300|141=Y|10=109|8=FIX.4.4|9=308|35=D|34=2|49=CLIENT255|52=20151108-10:33:37.007|56=BTCC-PRO-EXCHANGE-SERVER|1=1446978816952000:Basic NjQ0NmZhODMtODAzZS00MmYwLTk4NmItZGZiMjczZTE4MTA3OmRiNGE4NTVmZDE0NDczZGFlZjFiNzlhYzVhMWUzMmYwMzBkY2NiMDA=|11=cbab2b15-6c9b-41f9-a2fb-bd9af5d95298|38=1|40=2|44=1.4|54=1|55=XBTCNY|59=0|60=20151108-10:33:36.999|10=223|8=FIX.4.4|9=309|35=D|34=3|49=CLIENT255|52=20151108-10:33:37.312|56=BTCC-PRO-EXCHANGE-SERVER|1=1446978816999000:Basic NjQ0NmZhODMtODAzZS00MmYwLTk4NmItZGZiMjczZTE4MTA3OjQ3Y2IxZWYzYzIxYzRiYjRhZDIxN2JkNGE0MzYxODQzZjMxMzg3OWM=|11=86b6b8e2-df8f-4737-85be-d0b2ed4f0bc7|38=1|40=2|44=2888|54=2|55=XBTCNY|59=0|60=20151108-10:33:37.001|10=045|