8=FIX.4.4|9=95|35=A|34=1|49=CLIENT255|52=20151103-04:27:41.922|56=BTCC-PRO-EXCHANGE-SERVER|98=0|108=300|141=Y|10=102|
8=FIX.4.4|9=95|35=A|34=1|49=CLIENT255|52=20151103-04:27:46.916|56=BTCC-PRO-EXCHANGE-SERVER|98=0|108=300|141=Y|10=110|
8=FIX.4.4|9=95|35=A|34=1|49=CLIENT255|52=20151103-04:27:51.918|56=BTCC-PRO-EXCHANGE-SERVER|98=0|108=300|141=Y|10=108|
8=FIX.4.4|9=95|35=A|34=1|49=CLIENT255|52=20151103-04:27:56.915|56=BTCC-PRO-EXCHANGE-SERVER|98=0|108=300|141=Y|10=110|
8=FIX.4.4|9=95|35=A|34=1|49=CLIENT255|52=20151103-04:28:02.104|56=BTCC-PRO-EXCHANGE-SERVER|98=0|108=300|141=Y|10=092|
8=FIX.4.4|9=95|35=A|34=1|49=CLIENT255|52=20151103-04:28:07.918|56=BTCC-PRO-EXCHANGE-SERVER|98=0|108=300|141=Y|10=110|
8=FIX.4.4|9=95|35=A|34=1|49=CLIENT255|52=20151103-04:28:12.918|56=BTCC-PRO-EXCHANGE-SERVER|98=0|108=300|141=Y|10=106|
8=FIX.4.4|9=95|35=A|34=1|49=CLIENT255|52=20151103-04:28:17.917|56=BTCC-PRO-EXCHANGE-SERVER|98=0|108=300|141=Y|10=110|
8=FIX.4.4|9=95|35=A|34=1|49=CLIENT255|52=20151103-04:28:22.917|56=BTCC-PRO-EXCHANGE-SERVER|98=0|108=300|141=Y|10=106|
8=FIX.4.4|9=95|35=A|34=1|49=CLIENT255|52=20151103-04:28:27.918|56=BTCC-PRO-EXCHANGE-SERVER|98=0|108=300|141=Y|10=112|
8=FIX.4.4|9=95|35=A|34=1|49=CLIENT255|52=20151103-04:28:32.916|56=BTCC-PRO-EXCHANGE-SERVER|98=0|108=300|141=Y|10=106|
8=FIX.4.4|9=95|35=A|34=1|49=CLIENT255|52=20151103-04:28:37.914|56=BTCC-PRO-EXCHANGE-SERVER|98=0|108=300|141=Y|10=109|
8=FIX.4.4|9=95|35=A|34=1|49=CLIENT255|52=20151103-04:28:42.983|56=BTCC-PRO-EXCHANGE-SERVER|98=0|108=300|141=Y|10=111|
8=FIX.4.4|9=95|35=A|34=1|49=CLIENT255|52=20151103-04:28:48.918|56=BTCC-PRO-EXCHANGE-SERVER|98=0|108=300|141=Y|10=115|
8=FIX.4.4|9=95|35=A|34=1|49=CLIENT255|52=20151103-04:28:53.915|56=BTCC-PRO-EXCHANGE-SERVER|98=0|108=300|141=Y|10=108|
8=FIX.4.4|9=95|35=A|34=1|49=CLIENT255|52=20151103-04:28:58.923|56=BTCC-PRO-EXCHANGE-SERVER|98=0|108=300|141=Y|10=112|
8=FIX.4.4|9=95|35=A|34=1|49=CLIENT255|52=20151103-04:29:03.922|56=BTCC-PRO-EXCHANGE-SERVER|98=0|108=300|141=Y|10=102|
8=FIX.4.4|9=95|35=A|34=1|49=CLIENT255|52=20151103-04:29:08.922|56=BTCC-PRO-EXCHANGE-SERVER|98=0|108=300|141=Y|10=107|
8=FIX.4.4|9=95|35=A|34=1|49=CLIENT255|52=20151103-04:29:13.917|56=BTCC-PRO-EXCHANGE-SERVER|98=0|108=300|141=Y|10=107|
8=FIX.4.4|9=95|35=A|34=1|49=CLIENT255|52=20151103-04:29:18.914|56=BTCC-PRO-EXCHANGE-SERVER|98=0|108=300|141=Y|10=109|
8=FIX.4.4|9=95|35=A|34=1|49=CLIENT255|52=20151103-04:29:23.916|56=BTCC-PRO-EXCHANGE-SERVER|98=0|108=300|141=Y|10=107|
8=FIX.4.4|9=95|35=A|34=1|49=CLIENT255|52=20151103-04:29:28.921|56=BTCC-PRO-EXCHANGE-SERVER|98=0|108=300|141=Y|10=108|
8=FIX.4.4|9=95|35=A|34=1|49=CLIENT255|52=20151103-04:29:33.915|56=BTCC-PRO-EXCHANGE-SERVER|98=0|108=300|141=Y|10=107|
8=FIX.4.4|9=95|35=A|34=1|49=CLIENT255|52=20151103-04:29:38.921|56=BTCC-PRO-EXCHANGE-SERVER|98=0|108=300|141=Y|10=109|
8=FIX.4.4|9=95|35=A|34=1|49=CLIENT255|52=20151103-04:29:43.914|56=BTCC-PRO-EXCHANGE-SERVER|98=0|108=300|141=Y|10=107|
8=FIX.4.4|9=95|35=A|34=1|49=CLIENT255|52=20151103-07:10:22.898|56=BTCC-PRO-EXCHANGE-SERVER|98=0|108=300|141=Y|10=108|
8=FIX.4.4|9=95|35=A|34=1|49=BTCC-PRO-EXCHANGE-SERVER|52=20151103-07:10:09.677|56=CLIENT255|98=0|108=300|141=Y|10=108|
8=FIX.4.4|9=301|35=D|34=2|49=CLIENT255|52=20151103-07:10:22.968|56=BTCC-PRO-EXCHANGE-SERVER|1=1446534620634000:Basic YTU3MGExMWItZDI1Yy00OGQyLWFiNjYtYzQ2YzRkNWY5ZDY2OjFiOGRhZTAxZDJlMGI4MzY1ZDM1YzY2NjQ1YjE1NjdlMzc5MTNjMWE=|11=e18714bf-f3b7-48ae-8b65-c9171f7ad08c|38=1|40=1|54=1|55=XBTCNY|59=0|60=20151103-07:10:21.023|10=189|
8=FIX.4.4|9=283|35=8|34=2|49=BTCC-PRO-EXCHANGE-SERVER|52=20151103-07:10:12.254|56=CLIENT255|6=0|11=e18714bf-f3b7-48ae-8b65-c9171f7ad08c|14=0|17=1e09a5b9-a6b8-40a0-aa13-75d635696e61|31=0|32=0|37=7256a372d12c4a5b8cbc3d1ab63043a7|38=1|39=A|40=1|54=1|55=XBTCNY|59=0|60=20151103-07:10:18.600|150=A|151=1|10=048|
8=FIX.4.4|9=289|35=8|34=3|49=BTCC-PRO-EXCHANGE-SERVER|52=20151103-07:10:12.331|56=CLIENT255|6=2525|11=e18714bf-f3b7-48ae-8b65-c9171f7ad08c|14=1|17=f0ff8a30-5b33-4833-a365-4fe40124f8e2|31=2525|32=1|37=7256a372d12c4a5b8cbc3d1ab63043a7|38=1|39=2|40=1|54=1|55=XBTCNY|59=0|60=20151103-07:10:18.600|150=F|151=0|10=102|
8=FIX.4.4|9=289|35=8|34=4|49=BTCC-PRO-EXCHANGE-SERVER|52=20151103-07:10:12.336|56=CLIENT255|6=2525|11=e18714bf-f3b7-48ae-8b65-c9171f7ad08c|14=1|17=9da7d682-fed7-4ff4-8324-50f7fbdd4be9|31=2525|32=1|37=7256a372d12c4a5b8cbc3d1ab63043a7|38=1|39=3|40=1|54=1|55=XBTCNY|59=0|60=20151103-07:10:18.600|150=3|151=0|10=105|
8=FIX.4.4|9=95|35=A|34=1|49=CLIENT255|52=20151103-07:11:43.545|56=BTCC-PRO-EXCHANGE-SERVER|98=0|108=300|141=Y|10=101|
8=FIX.4.4|9=95|35=A|34=1|49=CLIENT255|52=20151103-07:11:48.536|56=BTCC-PRO-EXCHANGE-SERVER|98=0|108=300|141=Y|10=106|
8=FIX.4.4|9=95|35=A|34=1|49=CLIENT255|52=20151103-07:11:53.541|56=BTCC-PRO-EXCHANGE-SERVER|98=0|108=300|141=Y|10=098|
8=FIX.4.4|9=95|35=A|34=1|49=CLIENT255|52=20151103-07:11:58.539|56=BTCC-PRO-EXCHANGE-SERVER|98=0|108=300|141=Y|10=110|
8=FIX.4.4|9=95|35=A|34=1|49=CLIENT255|52=20151103-07:13:37.345|56=BTCC-PRO-EXCHANGE-SERVER|98=0|108=300|141=Y|10=104|
8=FIX.4.4|9=95|35=A|34=1|49=CLIENT255|52=20151103-07:13:42.339|56=BTCC-PRO-EXCHANGE-SERVER|98=0|108=300|141=Y|10=103|
8=FIX.4.4|9=95|35=A|34=1|49=CLIENT255|52=20151103-07:13:47.337|56=BTCC-PRO-EXCHANGE-SERVER|98=0|108=300|141=Y|10=106|
8=FIX.4.4|9=95|35=A|34=1|49=CLIENT255|52=20151103-07:13:52.338|56=BTCC-PRO-EXCHANGE-SERVER|98=0|108=300|141=Y|10=103|
8=FIX.4.4|9=76|35=0|34=3|49=CLIENT255|52=20151103-07:15:23.890|56=BTCC-PRO-EXCHANGE-SERVER|10=228|
8=FIX.4.4|9=76|35=0|34=5|49=BTCC-PRO-EXCHANGE-SERVER|52=20151103-07:15:12.355|56=CLIENT255|10=224|
8=FIX.4.4|9=95|35=A|34=1|49=CLIENT255|52=20151103-07:16:11.555|56=BTCC-PRO-EXCHANGE-SERVER|98=0|108=300|141=Y|10=102|
8=FIX.4.4|9=95|35=A|34=1|49=BTCC-PRO-EXCHANGE-SERVER|52=20151103-07:15:58.317|56=CLIENT255|98=0|108=300|141=Y|10=108|
8=FIX.4.4|9=301|35=D|34=2|49=CLIENT255|52=20151103-07:16:11.611|56=BTCC-PRO-EXCHANGE-SERVER|1=1446534969327000:Basic YTU3MGExMWItZDI1Yy00OGQyLWFiNjYtYzQ2YzRkNWY5ZDY2OmIwMDk2YTQ3OGYzNDY3MTcyMWM1NTlmMjczZTFjZjM5ODVmZDkxNWE=|11=f7111141-a323-4463-bc67-e19d31dfaf0b|38=1|40=1|54=1|55=XBTCNY|59=0|60=20151103-07:16:09.645|10=224|
8=FIX.4.4|9=283|35=8|34=2|49=BTCC-PRO-EXCHANGE-SERVER|52=20151103-07:15:59.182|56=CLIENT255|6=0|11=f7111141-a323-4463-bc67-e19d31dfaf0b|14=0|17=f07ad69d-2405-4a44-b5f2-99bbc13d6a73|31=0|32=0|37=6945d7a551ee4c15a9430b11cfa0d5a1|38=1|39=A|40=1|54=1|55=XBTCNY|59=0|60=20151103-07:16:05.522|150=A|151=1|10=045|
8=FIX.4.4|9=289|35=8|34=3|49=BTCC-PRO-EXCHANGE-SERVER|52=20151103-07:15:59.191|56=CLIENT255|6=2523|11=f7111141-a323-4463-bc67-e19d31dfaf0b|14=1|17=f5307afd-42df-430b-93ac-0f548cd6ddb5|31=2523|32=1|37=6945d7a551ee4c15a9430b11cfa0d5a1|38=1|39=2|40=1|54=1|55=XBTCNY|59=0|60=20151103-07:16:05.522|150=F|151=0|10=241|
8=FIX.4.4|9=289|35=8|34=4|49=BTCC-PRO-EXCHANGE-SERVER|52=20151103-07:15:59.202|56=CLIENT255|6=2523|11=f7111141-a323-4463-bc67-e19d31dfaf0b|14=1|17=54fe3e1b-b31c-4be2-b6c4-2dc534903856|31=2523|32=1|37=6945d7a551ee4c15a9430b11cfa0d5a1|38=1|39=3|40=1|54=1|55=XBTCNY|59=0|60=20151103-07:16:05.522|150=3|151=0|10=069|
8=FIX.4.4|9=95|35=A|34=1|49=CLIENT255|52=20151103-07:17:42.248|56=BTCC-PRO-EXCHANGE-SERVER|98=0|108=300|141=Y|10=106|
8=FIX.4.4|9=95|35=A|34=1|49=BTCC-PRO-EXCHANGE-SERVER|52=20151103-07:17:29.008|56=CLIENT255|98=0|108=300|141=Y|10=105|
8=FIX.4.4|9=311|35=D|34=2|49=CLIENT255|52=20151103-07:17:42.298|56=BTCC-PRO-EXCHANGE-SERVER|1=1446535059867000:Basic YTU3MGExMWItZDI1Yy00OGQyLWFiNjYtYzQ2YzRkNWY5ZDY2OmE0NDNmN2U1MmIwMDY5YmExYTQ2OGIyOGY0NGJmZmY4ZjAxNzlhZDM=|11=014d2a5f-a707-465e-8046-fcd045541421|38=1|40=2|44=2390.3|54=1|55=XBTCNY|59=0|60=20151103-07:17:40.260|10=169|
8=FIX.4.4|9=293|35=8|34=2|49=BTCC-PRO-EXCHANGE-SERVER|52=20151103-07:17:29.703|56=CLIENT255|6=0|11=014d2a5f-a707-465e-8046-fcd045541421|14=0|17=630dba58-a349-4fce-a3db-025cb99aa57b|31=0|32=0|37=d75afa4fb8ff4892b8a4e5fae219a349|38=1|39=A|40=2|44=2390.3|54=1|55=XBTCNY|59=0|60=20151103-07:17:36.038|150=A|151=1|10=187|
8=FIX.4.4|9=293|35=8|34=3|49=BTCC-PRO-EXCHANGE-SERVER|52=20151103-07:17:29.719|56=CLIENT255|6=0|11=014d2a5f-a707-465e-8046-fcd045541421|14=0|17=5f9fe255-6289-4c9f-aedd-d1e51739436b|31=0|32=0|37=d75afa4fb8ff4892b8a4e5fae219a349|38=1|39=0|40=2|44=2390.3|54=1|55=XBTCNY|59=0|60=20151103-07:17:36.038|150=0|151=1|10=051|
8=FIX.4.4|9=95|35=A|34=1|49=CLIENT255|52=20151103-08:56:55.453|56=BTCC-PRO-EXCHANGE-SERVER|98=0|108=300|141=Y|10=112|
8=FIX.4.4|9=95|35=A|34=1|49=BTCC-PRO-EXCHANGE-SERVER|52=20151103-08:56:42.245|56=CLIENT255|98=0|108=300|141=Y|10=107|
8=FIX.4.4|9=311|35=D|34=2|49=CLIENT255|52=20151103-08:56:55.574|56=BTCC-PRO-EXCHANGE-SERVER|1=1446541013045000:Basic YTU3MGExMWItZDI1Yy00OGQyLWFiNjYtYzQ2YzRkNWY5ZDY2OjlhOThmZGQyNDg2YjQ0N2Y2ZmE2Mjk1NmE2ZWUxNDkxM2JmNWZmZmI=|11=be4b649c-bd1f-463b-b504-cc92a1dc8ad2|38=1|40=2|44=2390.3|54=1|55=XBTCNY|59=0|60=20151103-08:56:53.389|10=144|
8=FIX.4.4|9=293|35=8|34=2|49=BTCC-PRO-EXCHANGE-SERVER|52=20151103-08:56:43.533|56=CLIENT255|6=0|11=be4b649c-bd1f-463b-b504-cc92a1dc8ad2|14=0|17=3b782e98-0ccf-40bf-9ed7-27a9a1f8714b|31=0|32=0|37=38c4480af0fa498cbec15cfeba949088|38=1|39=A|40=2|44=2390.3|54=1|55=XBTCNY|59=0|60=20151103-08:56:49.744|150=A|151=1|10=200|
8=FIX.4.4|9=293|35=8|34=3|49=BTCC-PRO-EXCHANGE-SERVER|52=20151103-08:56:43.594|56=CLIENT255|6=0|11=be4b649c-bd1f-463b-b504-cc92a1dc8ad2|14=0|17=a8fdab61-80b0-44af-8638-139bb3c242b7|31=0|32=0|37=38c4480af0fa498cbec15cfeba949088|38=1|39=0|40=2|44=2390.3|54=1|55=XBTCNY|59=0|60=20151103-08:56:49.744|150=0|151=1|10=103|
8=FIX.4.4|9=95|35=A|34=1|49=CLIENT255|52=20151103-08:57:30.972|56=BTCC-PRO-EXCHANGE-SERVER|98=0|108=300|141=Y|10=112|
8=FIX.4.4|9=95|35=A|34=1|49=CLIENT255|52=20151103-08:57:35.964|56=BTCC-PRO-EXCHANGE-SERVER|98=0|108=300|141=Y|10=118|
8=FIX.4.4|9=95|35=A|34=1|49=CLIENT255|52=20151103-08:57:40.967|56=BTCC-PRO-EXCHANGE-SERVER|98=0|108=300|141=Y|10=117|
8=FIX.4.4|9=95|35=A|34=1|49=CLIENT255|52=20151103-08:57:45.962|56=BTCC-PRO-EXCHANGE-SERVER|98=0|108=300|141=Y|10=117|
8=FIX.4.4|9=95|35=A|34=1|49=CLIENT255|52=20151103-08:58:04.141|56=BTCC-PRO-EXCHANGE-SERVER|98=0|108=300|141=Y|10=102|
8=FIX.4.4|9=95|35=A|34=1|49=CLIENT255|52=20151103-08:58:21.090|56=BTCC-PRO-EXCHANGE-SERVER|98=0|108=300|141=Y|10=104|
8=FIX.4.4|9=95|35=A|34=1|49=CLIENT255|52=20151103-08:58:26.083|56=BTCC-PRO-EXCHANGE-SERVER|98=0|108=300|141=Y|10=111|
8=FIX.4.4|9=95|35=A|34=1|49=CLIENT255|52=20151103-08:58:31.084|56=BTCC-PRO-EXCHANGE-SERVER|98=0|108=300|141=Y|10=108|
8=FIX.4.4|9=95|35=A|34=1|49=CLIENT255|52=20151103-08:58:36.082|56=BTCC-PRO-EXCHANGE-SERVER|98=0|108=300|141=Y|10=111|
8=FIX.4.4|9=95|35=A|34=1|49=CLIENT255|52=20151103-08:58:41.084|56=BTCC-PRO-EXCHANGE-SERVER|98=0|108=300|141=Y|10=109|
8=FIX.4.4|9=95|35=A|34=1|49=CLIENT255|52=20151103-08:58:46.085|56=BTCC-PRO-EXCHANGE-SERVER|98=0|108=300|141=Y|10=115|
8=FIX.4.4|9=95|35=A|34=1|49=CLIENT255|52=20151103-08:58:51.082|56=BTCC-PRO-EXCHANGE-SERVER|98=0|108=300|141=Y|10=108|
8=FIX.4.4|9=95|35=A|34=1|49=CLIENT255|52=20151103-08:58:56.083|56=BTCC-PRO-EXCHANGE-SERVER|98=0|108=300|141=Y|10=114|
8=FIX.4.4|9=95|35=A|34=1|49=CLIENT255|52=20151103-08:59:01.082|56=BTCC-PRO-EXCHANGE-SERVER|98=0|108=300|141=Y|10=104|
8=FIX.4.4|9=95|35=A|34=1|49=CLIENT255|52=20151103-08:59:06.082|56=BTCC-PRO-EXCHANGE-SERVER|98=0|108=300|141=Y|10=109|
8=FIX.4.4|9=95|35=A|34=1|49=CLIENT255|52=20151103-08:59:34.556|56=BTCC-PRO-EXCHANGE-SERVER|98=0|108=300|141=Y|10=116|
8=FIX.4.4|9=95|35=A|34=1|49=CLIENT255|52=20151103-08:59:39.549|56=BTCC-PRO-EXCHANGE-SERVER|98=0|108=300|141=Y|10=123|
8=FIX.4.4|9=95|35=A|34=1|49=CLIENT255|52=20151103-08:59:44.550|56=BTCC-PRO-EXCHANGE-SERVER|98=0|108=300|141=Y|10=111|
8=FIX.4.4|9=95|35=A|34=1|49=CLIENT255|52=20151103-08:59:49.548|56=BTCC-PRO-EXCHANGE-SERVER|98=0|108=300|141=Y|10=123|
8=FIX.4.4|9=95|35=A|34=1|49=CLIENT255|52=20151103-08:59:54.549|56=BTCC-PRO-EXCHANGE-SERVER|98=0|108=300|141=Y|10=120|
8=FIX.4.4|9=95|35=A|34=1|49=CLIENT255|52=20151103-09:00:07.907|56=BTCC-PRO-EXCHANGE-SERVER|98=0|108=300|141=Y|10=103|
8=FIX.4.4|9=95|35=A|34=1|49=CLIENT255|52=20151103-09:00:12.905|56=BTCC-PRO-EXCHANGE-SERVER|98=0|108=300|141=Y|10=097|
8=FIX.4.4|9=95|35=A|34=1|49=CLIENT255|52=20151103-09:00:17.906|56=BTCC-PRO-EXCHANGE-SERVER|98=0|108=300|141=Y|10=103|
8=FIX.4.4|9=95|35=A|34=1|49=CLIENT255|52=20151103-09:01:09.050|56=BTCC-PRO-EXCHANGE-SERVER|98=0|108=300|141=Y|10=095|
8=FIX.4.4|9=95|35=A|34=1|49=CLIENT255|52=20151103-09:01:14.047|56=BTCC-PRO-EXCHANGE-SERVER|98=0|108=300|141=Y|10=097|
8=FIX.4.4|9=95|35=A|34=1|49=CLIENT255|52=20151103-09:01:19.047|56=BTCC-PRO-EXCHANGE-SERVER|98=0|108=300|141=Y|10=102|
8=FIX.4.4|9=76|35=0|34=3|49=CLIENT255|52=20151103-09:01:56.438|56=BTCC-PRO-EXCHANGE-SERVER|10=229|
8=FIX.4.4|9=76|35=0|34=4|49=BTCC-PRO-EXCHANGE-SERVER|52=20151103-09:01:44.355|56=CLIENT255|10=225|
8=FIX.4.4|9=95|35=A|34=1|49=CLIENT255|52=20151103-09:04:52.367|56=BTCC-PRO-EXCHANGE-SERVER|98=0|108=300|141=Y|10=107|
8=FIX.4.4|9=95|35=A|34=1|49=CLIENT255|52=20151103-09:04:57.362|56=BTCC-PRO-EXCHANGE-SERVER|98=0|108=300|141=Y|10=107|
8=FIX.4.4|9=95|35=A|34=1|49=CLIENT255|52=20151103-09:05:02.362|56=BTCC-PRO-EXCHANGE-SERVER|98=0|108=300|141=Y|10=098|
8=FIX.4.4|9=95|35=A|34=1|49=CLIENT255|52=20151103-09:05:07.363|56=BTCC-PRO-EXCHANGE-SERVER|98=0|108=300|141=Y|10=104|
8=FIX.4.4|9=95|35=A|34=1|49=CLIENT255|52=20151103-09:05:12.359|56=BTCC-PRO-EXCHANGE-SERVER|98=0|108=300|141=Y|10=105|
8=FIX.4.4|9=95|35=A|34=1|49=CLIENT255|52=20151103-09:05:17.363|56=BTCC-PRO-EXCHANGE-SERVER|98=0|108=300|141=Y|10=105|
8=FIX.4.4|9=95|35=A|34=1|49=CLIENT255|52=20151103-09:05:22.362|56=BTCC-PRO-EXCHANGE-SERVER|98=0|108=300|141=Y|10=100|
8=FIX.4.4|9=95|35=A|34=1|49=CLIENT255|52=20151103-09:05:27.359|56=BTCC-PRO-EXCHANGE-SERVER|98=0|108=300|141=Y|10=111|
8=FIX.4.4|9=95|35=A|34=1|49=CLIENT255|52=20151103-09:05:32.360|56=BTCC-PRO-EXCHANGE-SERVER|98=0|108=300|141=Y|10=099|
8=FIX.4.4|9=95|35=A|34=1|49=CLIENT255|52=20151103-09:05:37.356|56=BTCC-PRO-EXCHANGE-SERVER|98=0|108=300|141=Y|10=109|
8=FIX.4.4|9=95|35=A|34=1|49=CLIENT255|52=20151103-09:05:42.360|56=BTCC-PRO-EXCHANGE-SERVER|98=0|108=300|141=Y|10=100|
8=FIX.4.4|9=95|35=A|34=1|49=CLIENT255|52=20151103-09:05:47.359|56=BTCC-PRO-EXCHANGE-SERVER|98=0|108=300|141=Y|10=113|
8=FIX.4.4|9=95|35=A|34=1|49=CLIENT255|52=20151103-09:05:52.356|56=BTCC-PRO-EXCHANGE-SERVER|98=0|108=300|141=Y|10=106|
8=FIX.4.4|9=95|35=A|34=1|49=CLIENT255|52=20151103-09:05:57.357|56=BTCC-PRO-EXCHANGE-SERVER|98=0|108=300|141=Y|10=112|
8=FIX.4.4|9=95|35=A|34=1|49=CLIENT255|52=20151103-09:06:02.359|56=BTCC-PRO-EXCHANGE-SERVER|98=0|108=300|141=Y|10=105|
8=FIX.4.4|9=95|35=A|34=1|49=CLIENT255|52=20151103-09:06:52.443|56=BTCC-PRO-EXCHANGE-SERVER|98=0|108=300|141=Y|10=104|
8=FIX.4.4|9=76|35=0|34=4|49=CLIENT255|52=20151103-09:06:56.433|56=BTCC-PRO-EXCHANGE-SERVER|10=230|
8=FIX.4.4|9=95|35=A|34=1|49=CLIENT255|52=20151103-09:06:57.440|56=BTCC-PRO-EXCHANGE-SERVER|98=0|108=300|141=Y|10=106|
8=FIX.4.4|9=76|35=0|34=5|49=BTCC-PRO-EXCHANGE-SERVER|52=20151103-09:06:44.355|56=CLIENT255|10=231|
8=FIX.4.4|9=95|35=A|34=1|49=CLIENT255|52=20151103-09:07:02.440|56=BTCC-PRO-EXCHANGE-SERVER|98=0|108=300|141=Y|10=097|
8=FIX.4.4|9=95|35=A|34=1|49=CLIENT255|52=20151103-09:07:07.440|56=BTCC-PRO-EXCHANGE-SERVER|98=0|108=300|141=Y|10=102|
8=FIX.4.4|9=76|35=0|34=5|49=CLIENT255|52=20151103-09:11:56.430|56=BTCC-PRO-EXCHANGE-SERVER|10=224|
8=FIX.4.4|9=76|35=0|34=6|49=BTCC-PRO-EXCHANGE-SERVER|52=20151103-09:11:44.355|56=CLIENT255|10=228|
8=FIX.4.4|9=76|35=0|34=6|49=CLIENT255|52=20151103-09:16:57.422|56=BTCC-PRO-EXCHANGE-SERVER|10=232|
8=FIX.4.4|9=76|35=0|34=7|49=BTCC-PRO-EXCHANGE-SERVER|52=20151103-09:16:44.355|56=CLIENT255|10=234|
8=FIX.4.4|9=76|35=0|34=7|49=CLIENT255|52=20151103-09:21:57.417|56=BTCC-PRO-EXCHANGE-SERVER|10=233|
8=FIX.4.4|9=76|35=0|34=8|49=BTCC-PRO-EXCHANGE-SERVER|52=20151103-09:21:44.355|56=CLIENT255|10=231|
8=FIX.4.4|9=76|35=0|34=8|49=CLIENT255|52=20151103-09:26:57.412|56=BTCC-PRO-EXCHANGE-SERVER|10=234|
8=FIX.4.4|9=76|35=0|34=9|49=BTCC-PRO-EXCHANGE-SERVER|52=20151103-09:26:44.355|56=CLIENT255|10=237|
8=FIX.4.4|9=77|35=0|34=10|49=BTCC-PRO-EXCHANGE-SERVER|52=20151103-09:31:44.355|56=CLIENT255|10=018|
8=FIX.4.4|9=76|35=0|34=9|49=CLIENT255|52=20151103-09:31:57.689|56=BTCC-PRO-EXCHANGE-SERVER|10=247|
8=FIX.4.4|9=77|35=0|34=11|49=BTCC-PRO-EXCHANGE-SERVER|52=20151103-09:36:44.355|56=CLIENT255|10=024|
8=FIX.4.4|9=77|35=0|34=10|49=CLIENT255|52=20151103-09:36:57.697|56=BTCC-PRO-EXCHANGE-SERVER|10=036|
8=FIX.4.4|9=77|35=0|34=12|49=BTCC-PRO-EXCHANGE-SERVER|52=20151103-09:41:44.355|56=CLIENT255|10=021|
8=FIX.4.4|9=77|35=0|34=11|49=CLIENT255|52=20151103-09:41:57.694|56=BTCC-PRO-EXCHANGE-SERVER|10=030|
8=FIX.4.4|9=95|35=A|34=1|49=CLIENT255|52=20151104-06:00:01.845|56=BTCC-PRO-EXCHANGE-SERVER|98=0|108=300|141=Y|10=096|
8=FIX.4.4|9=95|35=A|34=1|49=BTCC-PRO-EXCHANGE-SERVER|52=20151104-06:00:02.256|56=CLIENT255|98=0|108=300|141=Y|10=093|
8=FIX.4.4|9=311|35=D|34=2|49=CLIENT255|52=20151104-06:00:01.917|56=BTCC-PRO-EXCHANGE-SERVER|1=1446616797441000:Basic NjQ0NmZhODMtODAzZS00MmYwLTk4NmItZGZiMjczZTE4MTA3OjkxOWUwYzQ4ZWQyNWVmYjJmZWEzODg1ZWJkMzI4ZmMwZGExOTQ5OGE=|11=976a119e-7980-462c-852e-fb6846a79aad|38=1|40=2|44=2390.3|54=1|55=XBTCNY|59=0|60=20151104-05:59:58.021|10=096|
8=FIX.4.4|9=293|35=8|34=2|49=BTCC-PRO-EXCHANGE-SERVER|52=20151104-06:00:02.485|56=CLIENT255|6=0|11=976a119e-7980-462c-852e-fb6846a79aad|14=0|17=8874156d-f849-4233-ba7b-9033959ecce5|31=0|32=0|37=408c3aba5d6645ddae8b2bb1c4d3c2c4|38=1|39=A|40=2|44=2390.3|54=1|55=XBTCNY|59=0|60=20151104-06:00:10.617|150=A|151=1|10=055|
8=FIX.4.4|9=293|35=8|34=3|49=BTCC-PRO-EXCHANGE-SERVER|52=20151104-06:00:02.485|56=CLIENT255|6=0|11=976a119e-7980-462c-852e-fb6846a79aad|14=0|17=929313ba-6fe8-47fd-8732-211e49cf6f54|31=0|32=0|37=408c3aba5d6645ddae8b2bb1c4d3c2c4|38=1|39=0|40=2|44=2390.3|54=1|55=XBTCNY|59=0|60=20151104-06:00:10.617|150=0|151=1|10=065|
8=FIX.4.4|9=95|35=A|34=1|49=CLIENT255|52=20151104-06:00:43.392|56=BTCC-PRO-EXCHANGE-SERVER|98=0|108=300|141=Y|10=099|
8=FIX.4.4|9=95|35=A|34=1|49=CLIENT255|52=20151104-06:00:48.387|56=BTCC-PRO-EXCHANGE-SERVER|98=0|108=300|141=Y|10=108|
8=FIX.4.4|9=95|35=A|34=1|49=CLIENT255|52=20151104-06:00:53.389|56=BTCC-PRO-EXCHANGE-SERVER|98=0|108=300|141=Y|10=106|
8=FIX.4.4|9=95|35=A|34=1|49=CLIENT255|52=20151104-06:01:04.292|56=BTCC-PRO-EXCHANGE-SERVER|98=0|108=300|141=Y|10=096|
8=FIX.4.4|9=95|35=A|34=1|49=CLIENT255|52=20151104-06:01:09.286|56=BTCC-PRO-EXCHANGE-SERVER|98=0|108=300|141=Y|10=104|
8=FIX.4.4|9=95|35=A|34=1|49=CLIENT255|52=20151104-06:01:14.291|56=BTCC-PRO-EXCHANGE-SERVER|98=0|108=300|141=Y|10=096|
8=FIX.4.4|9=76|35=0|34=4|49=BTCC-PRO-EXCHANGE-SERVER|52=20151104-06:05:02.999|56=CLIENT255|10=235|
8=FIX.4.4|9=76|35=0|34=3|49=CLIENT255|52=20151104-06:05:02.651|56=BTCC-PRO-EXCHANGE-SERVER|10=219|
8=FIX.4.4|9=76|35=0|34=5|49=BTCC-PRO-EXCHANGE-SERVER|52=20151104-06:10:02.999|56=CLIENT255|10=232|
8=FIX.4.4|9=76|35=0|34=4|49=CLIENT255|52=20151104-06:10:02.793|56=BTCC-PRO-EXCHANGE-SERVER|10=223|
8=FIX.4.4|9=95|35=A|34=1|49=CLIENT255|52=20151104-07:29:23.588|56=BTCC-PRO-EXCHANGE-SERVER|98=0|108=300|141=Y|10=116|
8=FIX.4.4|9=95|35=A|34=1|49=BTCC-PRO-EXCHANGE-SERVER|52=20151104-07:29:23.996|56=CLIENT255|98=0|108=300|141=Y|10=119|
8=FIX.4.4|9=311|35=D|34=2|49=CLIENT255|52=20151104-07:29:23.660|56=BTCC-PRO-EXCHANGE-SERVER|1=1446622160374000:Basic NjQ0NmZhODMtODAzZS00MmYwLTk4NmItZGZiMjczZTE4MTA3OmEyNzljOGFlOWQ2ODc0MDUyYWE5NGVhNDE0MWIwYzc0ZjE0MDc0Nzc=|11=4a65bc9a-4f7c-41eb-8664-af58f19e9651|38=2|40=2|44=2585.3|54=2|55=XBTCNY|59=0|60=20151104-07:29:21.814|10=175|
8=FIX.4.4|9=268|35=8|34=2|49=BTCC-PRO-EXCHANGE-SERVER|52=20151104-07:29:24.216|56=CLIENT255|6=0|11=4a65bc9a-4f7c-41eb-8664-af58f19e9651|14=0|17=fa72ac49-4f8c-427f-b1f3-25ddd8b1c06c|37=-1|39=8|44=0|54=2|55=XBTCNY|58=Order Cancelled Because It Will Execute SelfOrder|103=99|150=8|151=0|10=026|
8=FIX.4.4|9=95|35=A|34=1|49=CLIENT255|52=20151104-07:30:41.672|56=BTCC-PRO-EXCHANGE-SERVER|98=0|108=300|141=Y|10=102|
8=FIX.4.4|9=95|35=A|34=1|49=CLIENT255|52=20151104-07:30:46.668|56=BTCC-PRO-EXCHANGE-SERVER|98=0|108=300|141=Y|10=112|
8=FIX.4.4|9=95|35=A|34=1|49=CLIENT255|52=20151104-07:30:51.667|56=BTCC-PRO-EXCHANGE-SERVER|98=0|108=300|141=Y|10=107|
8=FIX.4.4|9=95|35=A|34=1|49=CLIENT255|52=20151104-07:31:15.947|56=BTCC-PRO-EXCHANGE-SERVER|98=0|108=300|141=Y|10=109|
8=FIX.4.4|9=95|35=A|34=1|49=BTCC-PRO-EXCHANGE-SERVER|52=20151104-07:31:16.348|56=CLIENT255|98=0|108=300|141=Y|10=105|
8=FIX.4.4|9=311|35=D|34=2|49=CLIENT255|52=20151104-07:31:16.015|56=BTCC-PRO-EXCHANGE-SERVER|1=1446622273558000:Basic NjQ0NmZhODMtODAzZS00MmYwLTk4NmItZGZiMjczZTE4MTA3OjRkYTRkYmQ5MGQ0YmVmZjExZDkzZTZmZjNlMTU5OTY5NTc4MTcyOTY=|11=8ab75ba3-d596-4f75-b601-955978d01aac|38=2|40=2|44=2585.3|54=1|55=XBTCNY|59=0|60=20151104-07:31:14.436|10=086|
8=FIX.4.4|9=293|35=8|34=2|49=BTCC-PRO-EXCHANGE-SERVER|52=20151104-07:31:16.580|56=CLIENT255|6=0|11=8ab75ba3-d596-4f75-b601-955978d01aac|14=0|17=b96d88de-bea6-4646-b06c-92d32c905df7|31=0|32=0|37=cf0fb78caf554249ba18e2ab0a1ec571|38=2|39=A|40=2|44=2585.3|54=1|55=XBTCNY|59=0|60=20151104-07:31:24.886|150=A|151=2|10=006|
8=FIX.4.4|9=293|35=8|34=3|49=BTCC-PRO-EXCHANGE-SERVER|52=20151104-07:31:16.583|56=CLIENT255|6=0|11=8ab75ba3-d596-4f75-b601-955978d01aac|14=0|17=127fca43-0eec-48cf-b9fb-154987285d17|31=0|32=0|37=cf0fb78caf554249ba18e2ab0a1ec571|38=2|39=0|40=2|44=2585.3|54=1|55=XBTCNY|59=0|60=20151104-07:31:24.886|150=0|151=2|10=180|
8=FIX.4.4|9=95|35=A|34=1|49=CLIENT255|52=20151104-07:31:45.097|56=BTCC-PRO-EXCHANGE-SERVER|98=0|108=300|141=Y|10=108|
8=FIX.4.4|9=95|35=A|34=1|49=BTCC-PRO-EXCHANGE-SERVER|52=20151104-07:31:45.480|56=CLIENT255|98=0|108=300|141=Y|10=104|
8=FIX.4.4|9=312|35=D|34=2|49=CLIENT255|52=20151104-07:31:45.147|56=BTCC-PRO-EXCHANGE-SERVER|1=1446622302780000:Basic NjQ0NmZhODMtODAzZS00MmYwLTk4NmItZGZiMjczZTE4MTA3OjQ5M2RlMDBkNmE3MmZiZjViMmI5NzUyNzJkZTFmYmExOWI0NTRjYTg=|11=2c9e3c2c-b6b8-4d5c-b3cb-b8038e426251|38=12|40=2|44=2585.3|54=1|55=XBTCNY|59=0|60=20151104-07:31:43.653|10=182|
8=FIX.4.4|9=295|35=8|34=2|49=BTCC-PRO-EXCHANGE-SERVER|52=20151104-07:31:45.707|56=CLIENT255|6=0|11=2c9e3c2c-b6b8-4d5c-b3cb-b8038e426251|14=0|17=8b62af9b-0759-467d-8d87-b60671831ddb|31=0|32=0|37=0f83cdee107645e089fc159a3a8366f2|38=12|39=A|40=2|44=2585.3|54=1|55=XBTCNY|59=0|60=20151104-07:31:54.011|150=A|151=12|10=118|
8=FIX.4.4|9=295|35=8|34=3|49=BTCC-PRO-EXCHANGE-SERVER|52=20151104-07:31:45.708|56=CLIENT255|6=0|11=2c9e3c2c-b6b8-4d5c-b3cb-b8038e426251|14=0|17=e1749e01-c8c9-4bd1-a25c-0f423bcbba38|31=0|32=0|37=0f83cdee107645e089fc159a3a8366f2|38=12|39=0|40=2|44=2585.3|54=1|55=XBTCNY|59=0|60=20151104-07:31:54.011|150=0|151=12|10=242|
8=FIX.4.4|9=95|35=A|34=1|49=CLIENT255|52=20151104-07:34:12.970|56=BTCC-PRO-EXCHANGE-SERVER|98=0|108=300|141=Y|10=105|
8=FIX.4.4|9=95|35=A|34=1|49=CLIENT255|52=20151104-07:34:24.964|56=BTCC-PRO-EXCHANGE-SERVER|98=0|108=300|141=Y|10=111|
8=FIX.4.4|9=95|35=A|34=1|49=BTCC-PRO-EXCHANGE-SERVER|52=20151104-07:34:25.348|56=CLIENT255|98=0|108=300|141=Y|10=108|
8=FIX.4.4|9=312|35=D|34=2|49=CLIENT255|52=20151104-07:34:25.012|56=BTCC-PRO-EXCHANGE-SERVER|1=1446622462791000:Basic NjQ0NmZhODMtODAzZS00MmYwLTk4NmItZGZiMjczZTE4MTA3OmYwMWFjNWU0NGZmZDU1MWExNjE4MDgyZGFiY2YxZjg3YmE0MWI0NjY=|11=61c22c1e-a85d-4715-b984-9ae3d9e75e79|38=12|40=2|44=2585.3|54=1|55=XBTCNY|59=0|60=20151104-07:34:23.548|10=204|
8=FIX.4.4|9=295|35=8|34=2|49=BTCC-PRO-EXCHANGE-SERVER|52=20151104-07:34:25.582|56=CLIENT255|6=0|11=61c22c1e-a85d-4715-b984-9ae3d9e75e79|14=0|17=0c3c8e9f-57a8-406e-ac27-2ea169093b64|31=0|32=0|37=29d8ee0a197f4016ae05aeb1ee918b67|38=12|39=A|40=2|44=2585.3|54=1|55=XBTCNY|59=0|60=20151104-07:34:33.886|150=A|151=12|10=195|
8=FIX.4.4|9=295|35=8|34=3|49=BTCC-PRO-EXCHANGE-SERVER|52=20151104-07:34:25.583|56=CLIENT255|6=0|11=61c22c1e-a85d-4715-b984-9ae3d9e75e79|14=0|17=98743089-66c5-47b9-9ecb-6ca22ad5230e|31=0|32=0|37=29d8ee0a197f4016ae05aeb1ee918b67|38=12|39=0|40=2|44=2585.3|54=1|55=XBTCNY|59=0|60=20151104-07:34:33.886|150=0|151=12|10=124|
8=FIX.4.4|9=95|35=A|34=1|49=CLIENT255|52=20151104-07:37:32.344|56=BTCC-PRO-EXCHANGE-SERVER|98=0|108=300|141=Y|10=105|
8=FIX.4.4|9=95|35=A|34=1|49=BTCC-PRO-EXCHANGE-SERVER|52=20151104-07:37:32.727|56=CLIENT255|98=0|108=300|141=Y|10=110|
8=FIX.4.4|9=312|35=D|34=2|49=CLIENT255|52=20151104-07:37:32.389|56=BTCC-PRO-EXCHANGE-SERVER|1=1446622650177000:Basic NjQ0NmZhODMtODAzZS00MmYwLTk4NmItZGZiMjczZTE4MTA3OjdiMzkzMGNhMzcxOTg3NTdkNGIyMTZmN2MwNTE3Mzg5MDA2NTg3ZjY=|11=ab58d09b-c72c-460f-8809-1fe5378353b0|38=12|40=2|44=2585.3|54=1|55=XBTCNY|59=0|60=20151104-07:37:30.902|10=064|
8=FIX.4.4|9=295|35=8|34=2|49=BTCC-PRO-EXCHANGE-SERVER|52=20151104-07:37:32.962|56=CLIENT255|6=0|11=ab58d09b-c72c-460f-8809-1fe5378353b0|14=0|17=af169afc-5ea9-4879-9104-883e3949403e|31=0|32=0|37=0ca9983d078c4572a1d3acea0f37308c|38=12|39=A|40=2|44=2585.3|54=1|55=XBTCNY|59=0|60=20151104-07:37:41.276|150=A|151=12|10=255|
8=FIX.4.4|9=295|35=8|34=3|49=BTCC-PRO-EXCHANGE-SERVER|52=20151104-07:37:32.962|56=CLIENT255|6=0|11=ab58d09b-c72c-460f-8809-1fe5378353b0|14=0|17=9ba92b39-ca1e-4a3c-8eee-62b477a75d40|31=0|32=0|37=0ca9983d078c4572a1d3acea0f37308c|38=12|39=0|40=2|44=2585.3|54=1|55=XBTCNY|59=0|60=20151104-07:37:41.276|150=0|151=12|10=180|
8=FIX.4.4|9=95|35=A|34=1|49=CLIENT255|52=20151104-07:38:27.939|56=BTCC-PRO-EXCHANGE-SERVER|98=0|108=300|141=Y|10=120|
8=FIX.4.4|9=95|35=A|34=1|49=BTCC-PRO-EXCHANGE-SERVER|52=20151104-07:38:28.321|56=CLIENT255|98=0|108=300|141=Y|10=106|
8=FIX.4.4|9=312|35=D|34=2|49=CLIENT255|52=20151104-07:38:27.982|56=BTCC-PRO-EXCHANGE-SERVER|1=1446622705745000:Basic NjQ0NmZhODMtODAzZS00MmYwLTk4NmItZGZiMjczZTE4MTA3OmQ0OWY3YmY4YjVkMDM2YjI5MjczODJmZTYwNzRkOGUwNjAxYjRkMzc=|11=5ae0c972-ef7b-4dd9-8881-20143745d4ee|38=12|40=2|44=2585.3|54=1|55=XBTCNY|59=0|60=20151104-07:38:26.511|10=203|
8=FIX.4.4|9=295|35=8|34=2|49=BTCC-PRO-EXCHANGE-SERVER|52=20151104-07:38:28.537|56=CLIENT255|6=0|11=5ae0c972-ef7b-4dd9-8881-20143745d4ee|14=0|17=8e93d8d2-cdac-4a18-b0d5-044825834bbf|31=0|32=0|37=1c543660a83c4c07983cc3b1b1f12651|38=12|39=A|40=2|44=2585.3|54=1|55=XBTCNY|59=0|60=20151104-07:38:36.855|150=A|151=12|10=076|
8=FIX.4.4|9=295|35=8|34=3|49=BTCC-PRO-EXCHANGE-SERVER|52=20151104-07:38:28.537|56=CLIENT255|6=0|11=5ae0c972-ef7b-4dd9-8881-20143745d4ee|14=0|17=2fa2ca9a-cdbd-400e-9432-ca502569ed61|31=0|32=0|37=1c543660a83c4c07983cc3b1b1f12651|38=12|39=0|40=2|44=2585.3|54=1|55=XBTCNY|59=0|60=20151104-07:38:36.855|150=0|151=12|10=076|
8=FIX.4.4|9=95|35=A|34=1|49=CLIENT255|52=20151104-08:12:37.417|56=BTCC-PRO-EXCHANGE-SERVER|98=0|108=300|141=Y|10=105|
8=FIX.4.4|9=95|35=A|34=1|49=BTCC-PRO-EXCHANGE-SERVER|52=20151104-08:12:38.471|56=CLIENT255|98=0|108=300|141=Y|10=106|
8=FIX.4.4|9=312|35=D|34=2|49=CLIENT255|52=20151104-08:12:37.462|56=BTCC-PRO-EXCHANGE-SERVER|1=1446624754022000:Basic NjQ0NmZhODMtODAzZS00MmYwLTk4NmItZGZiMjczZTE4MTA3OmQ0M2NmNTAyOTQ2YjcwODg5ZGQwYzVlNTAxMTkyNjc1ZTM2MDE4NzA=|11=13e5a2c1-41a8-485e-9227-3c702de4bf89|38=12|40=2|44=2583.3|54=1|55=XBTCNY|59=0|60=20151104-08:12:35.628|10=182|
8=FIX.4.4|9=295|35=8|34=2|49=BTCC-PRO-EXCHANGE-SERVER|52=20151104-08:12:38.687|56=CLIENT255|6=0|11=13e5a2c1-41a8-485e-9227-3c702de4bf89|14=0|17=c6659f28-67ba-4040-ad0d-9016dfb81d28|31=0|32=0|37=527b1adc000b447f92482c00ed568312|38=12|39=A|40=2|44=2583.3|54=1|55=XBTCNY|59=0|60=20151104-08:12:47.074|150=A|151=12|10=161|
8=FIX.4.4|9=295|35=8|34=3|49=BTCC-PRO-EXCHANGE-SERVER|52=20151104-08:12:38.689|56=CLIENT255|6=0|11=13e5a2c1-41a8-485e-9227-3c702de4bf89|14=0|17=4f8b2bc4-ef0b-4528-9223-6cdb1eaa886b|31=0|32=0|37=527b1adc000b447f92482c00ed568312|38=12|39=0|40=2|44=2583.3|54=1|55=XBTCNY|59=0|60=20151104-08:12:47.074|150=0|151=12|10=015|
8=FIX.4.4|9=95|35=A|34=1|49=CLIENT255|52=20151104-09:17:30.529|56=BTCC-PRO-EXCHANGE-SERVER|98=0|108=300|141=Y|10=108|
8=FIX.4.4|9=95|35=A|34=1|49=BTCC-PRO-EXCHANGE-SERVER|52=20151104-09:17:31.554|56=CLIENT255|98=0|108=300|141=Y|10=107|
8=FIX.4.4|9=312|35=D|34=2|49=CLIENT255|52=20151104-09:17:30.575|56=BTCC-PRO-EXCHANGE-SERVER|1=1446628648401000:Basic NjQ0NmZhODMtODAzZS00MmYwLTk4NmItZGZiMjczZTE4MTA3OmY3ZGE5YWNjNjIyZTIyYzJlYzVmMWIyYzU5NzM5MTNhMzIwYjYxYTc=|11=d13c4199-5f90-471b-bab4-e3b7632be7dd|38=12|40=2|44=2583.3|54=1|55=XBTCNY|59=0|60=20151104-09:17:29.137|10=134|
8=FIX.4.4|9=295|35=8|34=2|49=BTCC-PRO-EXCHANGE-SERVER|52=20151104-09:17:31.777|56=CLIENT255|6=0|11=d13c4199-5f90-471b-bab4-e3b7632be7dd|14=0|17=11fb81c6-32ad-427c-a989-6c784d72c2cf|31=0|32=0|37=f41bdc26063146e8a1bd8741c4c25801|38=12|39=A|40=2|44=2583.3|54=1|55=XBTCNY|59=0|60=20151104-09:17:40.279|150=A|151=12|10=159|
8=FIX.4.4|9=295|35=8|34=3|49=BTCC-PRO-EXCHANGE-SERVER|52=20151104-09:17:31.778|56=CLIENT255|6=0|11=d13c4199-5f90-471b-bab4-e3b7632be7dd|14=0|17=b0a4a1c1-9ebd-45a6-b6ac-54882aaab995|31=0|32=0|37=f41bdc26063146e8a1bd8741c4c25801|38=12|39=0|40=2|44=2583.3|54=1|55=XBTCNY|59=0|60=20151104-09:17:40.279|150=0|151=12|10=251|
8=FIX.4.4|9=95|35=A|34=1|49=CLIENT255|52=20151104-09:34:29.903|56=BTCC-PRO-EXCHANGE-SERVER|98=0|108=300|141=Y|10=111|
8=FIX.4.4|9=95|35=A|34=1|49=BTCC-PRO-EXCHANGE-SERVER|52=20151104-09:34:30.927|56=CLIENT255|98=0|108=300|141=Y|10=109|
8=FIX.4.4|9=201|35=V|34=2|49=CLIENT255|52=20151104-09:34:29.955|56=BTCC-PRO-EXCHANGE-SERVER|262=req111|263=0|264=10|146=1|55=XBTCNY|267=13|269=0|269=1|269=2|269=3|269=4|269=5|269=6|269=7|269=8|269=9|269=A|269=B|269=C|10=035|
8=FIX.4.4|9=737|35=W|34=2|49=BTCC-PRO-EXCHANGE-SERVER|52=20151104-09:34:31.021|56=CLIENT255|55=XBTCNY|262=req111|268=23|269=0|270=1870|271=19|269=0|270=1850|271=10|269=0|270=1800|271=10|269=0|270=1780|271=20|269=0|270=1150.9|271=12|269=0|270=1150.4|271=28|269=0|270=1090.7|271=12|269=1|270=1989.2|271=1|269=1|270=1989.3|271=1|269=1|270=1989.4|271=1|269=1|270=1989.5|271=1|269=1|270=1989.6|271=1|269=1|270=1989.7|271=1|269=1|270=1989.8|271=1|269=1|270=1989.9|271=1|269=1|270=1990|271=24|269=1|270=1991|271=1|269=1|270=1991.5|271=1|269=2|270=1870|272=20151028|273=05:35:09.131|269=5|270=1970|272=20151028|273=05:35:09.131|269=7|270=2090|272=20151028|273=05:35:09.131|269=8|270=1780|272=20151028|273=05:35:09.131|269=B|271=46|272=20151028|273=05:35:09.131|10=121|
8=FIX.4.4|9=95|35=A|34=1|49=CLIENT255|52=20151104-09:36:09.650|56=BTCC-PRO-EXCHANGE-SERVER|98=0|108=300|141=Y|10=110|
8=FIX.4.4|9=95|35=A|34=1|49=CLIENT255|52=20151104-09:36:14.646|56=BTCC-PRO-EXCHANGE-SERVER|98=0|108=300|141=Y|10=111|
8=FIX.4.4|9=95|35=A|34=1|49=CLIENT255|52=20151104-09:36:19.645|56=BTCC-PRO-EXCHANGE-SERVER|98=0|108=300|141=Y|10=115|
8=FIX.4.4|9=95|35=A|34=1|49=CLIENT255|52=20151104-09:36:28.260|56=BTCC-PRO-EXCHANGE-SERVER|98=0|108=300|141=Y|10=108|
8=FIX.4.4|9=95|35=A|34=1|49=BTCC-PRO-EXCHANGE-SERVER|52=20151104-09:36:29.277|56=CLIENT255|98=0|108=300|141=Y|10=117|
8=FIX.4.4|9=307|35=D|34=2|49=CLIENT255|52=20151104-09:36:28.305|56=BTCC-PRO-EXCHANGE-SERVER|1=1446629786098000:Basic NjQ0NmZhODMtODAzZS00MmYwLTk4NmItZGZiMjczZTE4MTA3OmM2MGY1YjA2NzcxZGRiN2VhMjI4NTRjNjRkNTAyY2JmZTk4NGMyNTU=|11=50d562b7-e7a2-4cf3-b646-721078f60b83|38=12|40=2|44=1|54=1|55=XBTCNY|59=0|60=20151104-09:36:26.830|10=133|
8=FIX.4.4|9=290|35=8|34=2|49=BTCC-PRO-EXCHANGE-SERVER|52=20151104-09:36:29.504|56=CLIENT255|6=0|11=50d562b7-e7a2-4cf3-b646-721078f60b83|14=0|17=8a913f75-496a-4509-b1a3-8763838cd36c|31=0|32=0|37=cd3ca133c70c437aacb9bc255785376b|38=12|39=A|40=2|44=1|54=1|55=XBTCNY|59=0|60=20151104-09:36:38.030|150=A|151=12|10=175|
8=FIX.4.4|9=290|35=8|34=3|49=BTCC-PRO-EXCHANGE-SERVER|52=20151104-09:36:29.504|56=CLIENT255|6=0|11=50d562b7-e7a2-4cf3-b646-721078f60b83|14=0|17=f54bda20-e582-4141-a072-7ff9f2342fee|31=0|32=0|37=cd3ca133c70c437aacb9bc255785376b|38=12|39=0|40=2|44=1|54=1|55=XBTCNY|59=0|60=20151104-09:36:38.030|150=0|151=12|10=056|
8=FIX.4.4|9=76|35=0|34=4|49=BTCC-PRO-EXCHANGE-SERVER|52=20151104-09:41:29.999|56=CLIENT255|10=247|
8=FIX.4.4|9=76|35=0|34=3|49=CLIENT255|52=20151104-09:41:29.021|56=BTCC-PRO-EXCHANGE-SERVER|10=222|
8=FIX.4.4|9=76|35=0|34=5|49=BTCC-PRO-EXCHANGE-SERVER|52=20151104-09:46:29.999|56=CLIENT255|10=253|
8=FIX.4.4|9=76|35=0|34=4|49=CLIENT255|52=20151104-09:46:29.022|56=BTCC-PRO-EXCHANGE-SERVER|10=229|
8=FIX.4.4|9=95|35=A|34=1|49=CLIENT255|52=20151104-11:58:41.608|56=BTCC-PRO-EXCHANGE-SERVER|98=0|108=300|141=Y|10=106|
8=FIX.4.4|9=95|35=A|34=1|49=BTCC-PRO-EXCHANGE-SERVER|52=20151104-11:58:42.619|56=CLIENT255|98=0|108=300|141=Y|10=109|
8=FIX.4.4|9=95|35=A|34=1|49=CLIENT255|52=20151104-12:03:32.365|56=BTCC-PRO-EXCHANGE-SERVER|98=0|108=300|141=Y|10=097|
8=FIX.4.4|9=95|35=A|34=1|49=CLIENT255|52=20151104-12:03:37.348|56=BTCC-PRO-EXCHANGE-SERVER|98=0|108=300|141=Y|10=103|
8=FIX.4.4|9=76|35=0|34=2|49=BTCC-PRO-EXCHANGE-SERVER|52=20151104-12:03:42.999|56=CLIENT255|10=232|
8=FIX.4.4|9=76|35=0|34=2|49=CLIENT255|52=20151104-12:03:42.057|56=BTCC-PRO-EXCHANGE-SERVER|10=217|
8=FIX.4.4|9=95|35=A|34=1|49=CLIENT255|52=20151104-12:03:42.350|56=BTCC-PRO-EXCHANGE-SERVER|98=0|108=300|141=Y|10=092|
8=FIX.4.4|9=95|35=A|34=1|49=CLIENT255|52=20151104-12:03:47.351|56=BTCC-PRO-EXCHANGE-SERVER|98=0|108=300|141=Y|10=098|
8=FIX.4.4|9=95|35=A|34=1|49=CLIENT255|52=20151104-12:03:52.347|56=BTCC-PRO-EXCHANGE-SERVER|98=0|108=300|141=Y|10=099|
8=FIX.4.4|9=95|35=A|34=1|49=CLIENT255|52=20151104-12:03:57.349|56=BTCC-PRO-EXCHANGE-SERVER|98=0|108=300|141=Y|10=106|
8=FIX.4.4|9=95|35=A|34=1|49=CLIENT255|52=20151104-12:04:02.348|56=BTCC-PRO-EXCHANGE-SERVER|98=0|108=300|141=Y|10=096|
8=FIX.4.4|9=95|35=A|34=1|49=CLIENT255|52=20151104-12:04:07.350|56=BTCC-PRO-EXCHANGE-SERVER|98=0|108=300|141=Y|10=094|
8=FIX.4.4|9=95|35=A|34=1|49=CLIENT255|52=20151104-12:04:12.348|56=BTCC-PRO-EXCHANGE-SERVER|98=0|108=300|141=Y|10=097|
8=FIX.4.4|9=95|35=A|34=1|49=CLIENT255|52=20151104-12:04:17.350|56=BTCC-PRO-EXCHANGE-SERVER|98=0|108=300|141=Y|10=095|
8=FIX.4.4|9=95|35=A|34=1|49=CLIENT255|52=20151104-12:04:22.350|56=BTCC-PRO-EXCHANGE-SERVER|98=0|108=300|141=Y|10=091|
8=FIX.4.4|9=95|35=A|34=1|49=CLIENT255|52=20151104-12:04:27.347|56=BTCC-PRO-EXCHANGE-SERVER|98=0|108=300|141=Y|10=102|
8=FIX.4.4|9=95|35=A|34=1|49=CLIENT255|52=20151104-12:04:32.348|56=BTCC-PRO-EXCHANGE-SERVER|98=0|108=300|141=Y|10=099|
8=FIX.4.4|9=95|35=A|34=1|49=CLIENT255|52=20151104-12:04:37.345|56=BTCC-PRO-EXCHANGE-SERVER|98=0|108=300|141=Y|10=101|
8=FIX.4.4|9=95|35=A|34=1|49=CLIENT255|52=20151104-12:04:42.373|56=BTCC-PRO-EXCHANGE-SERVER|98=0|108=300|141=Y|10=098|
8=FIX.4.4|9=95|35=A|34=1|49=CLIENT255|52=20151104-12:04:48.348|56=BTCC-PRO-EXCHANGE-SERVER|98=0|108=300|141=Y|10=106|
8=FIX.4.4|9=95|35=A|34=1|49=CLIENT255|52=20151104-12:04:53.348|56=BTCC-PRO-EXCHANGE-SERVER|98=0|108=300|141=Y|10=102|
8=FIX.4.4|9=95|35=A|34=1|49=CLIENT255|52=20151104-12:04:58.349|56=BTCC-PRO-EXCHANGE-SERVER|98=0|108=300|141=Y|10=108|
8=FIX.4.4|9=95|35=A|34=1|49=CLIENT255|52=20151104-12:05:03.345|56=BTCC-PRO-EXCHANGE-SERVER|98=0|108=300|141=Y|10=095|
8=FIX.4.4|9=95|35=A|34=1|49=CLIENT255|52=20151104-12:05:08.347|56=BTCC-PRO-EXCHANGE-SERVER|98=0|108=300|141=Y|10=102|
8=FIX.4.4|9=95|35=A|34=1|49=CLIENT255|52=20151104-12:05:13.349|56=BTCC-PRO-EXCHANGE-SERVER|98=0|108=300|141=Y|10=100|
8=FIX.4.4|9=95|35=A|34=1|49=CLIENT255|52=20151104-12:05:18.349|56=BTCC-PRO-EXCHANGE-SERVER|98=0|108=300|141=Y|10=105|
8=FIX.4.4|9=95|35=A|34=1|49=CLIENT255|52=20151104-12:05:23.347|56=BTCC-PRO-EXCHANGE-SERVER|98=0|108=300|141=Y|10=099|
8=FIX.4.4|9=95|35=A|34=1|49=CLIENT255|52=20151104-12:05:28.344|56=BTCC-PRO-EXCHANGE-SERVER|98=0|108=300|141=Y|10=101|
8=FIX.4.4|9=95|35=A|34=1|49=CLIENT255|52=20151104-12:05:33.344|56=BTCC-PRO-EXCHANGE-SERVER|98=0|108=300|141=Y|10=097|
8=FIX.4.4|9=95|35=A|34=1|49=CLIENT255|52=20151104-12:05:38.349|56=BTCC-PRO-EXCHANGE-SERVER|98=0|108=300|141=Y|10=107|
8=FIX.4.4|9=95|35=A|34=1|49=CLIENT255|52=20151104-12:05:43.348|56=BTCC-PRO-EXCHANGE-SERVER|98=0|108=300|141=Y|10=102|
8=FIX.4.4|9=95|35=A|34=1|49=CLIENT255|52=20151104-12:05:48.347|56=BTCC-PRO-EXCHANGE-SERVER|98=0|108=300|141=Y|10=106|
8=FIX.4.4|9=95|35=A|34=1|49=CLIENT255|52=20151104-12:05:53.344|56=BTCC-PRO-EXCHANGE-SERVER|98=0|108=300|141=Y|10=099|
8=FIX.4.4|9=95|35=A|34=1|49=CLIENT255|52=20151104-12:05:58.344|56=BTCC-PRO-EXCHANGE-SERVER|98=0|108=300|141=Y|10=104|
8=FIX.4.4|9=95|35=A|34=1|49=CLIENT255|52=20151104-12:06:03.348|56=BTCC-PRO-EXCHANGE-SERVER|98=0|108=300|141=Y|10=099|
8=FIX.4.4|9=95|35=A|34=1|49=CLIENT255|52=20151104-12:06:08.344|56=BTCC-PRO-EXCHANGE-SERVER|98=0|108=300|141=Y|10=100|
8=FIX.4.4|9=95|35=A|34=1|49=CLIENT255|52=20151104-12:06:14.348|56=BTCC-PRO-EXCHANGE-SERVER|98=0|108=300|141=Y|10=101|
8=FIX.4.4|9=95|35=A|34=1|49=CLIENT255|52=20151104-12:06:19.346|56=BTCC-PRO-EXCHANGE-SERVER|98=0|108=300|141=Y|10=104|
8=FIX.4.4|9=95|35=A|34=1|49=CLIENT255|52=20151104-12:06:24.345|56=BTCC-PRO-EXCHANGE-SERVER|98=0|108=300|141=Y|10=099|
8=FIX.4.4|9=95|35=A|34=1|49=CLIENT255|52=20151104-12:06:29.343|56=BTCC-PRO-EXCHANGE-SERVER|98=0|108=300|141=Y|10=102|
8=FIX.4.4|9=95|35=A|34=1|49=CLIENT255|52=20151104-12:06:34.347|56=BTCC-PRO-EXCHANGE-SERVER|98=0|108=300|141=Y|10=102|
8=FIX.4.4|9=95|35=A|34=1|49=CLIENT255|52=20151104-12:06:39.344|56=BTCC-PRO-EXCHANGE-SERVER|98=0|108=300|141=Y|10=104|
8=FIX.4.4|9=95|35=A|34=1|49=CLIENT255|52=20151104-12:06:44.345|56=BTCC-PRO-EXCHANGE-SERVER|98=0|108=300|141=Y|10=101|
8=FIX.4.4|9=95|35=A|34=1|49=CLIENT255|52=20151104-12:06:49.344|56=BTCC-PRO-EXCHANGE-SERVER|98=0|108=300|141=Y|10=105|
8=FIX.4.4|9=95|35=A|34=1|49=CLIENT255|52=20151104-12:06:54.343|56=BTCC-PRO-EXCHANGE-SERVER|98=0|108=300|141=Y|10=100|
8=FIX.4.4|9=95|35=A|34=1|49=CLIENT255|52=20151104-12:06:59.345|56=BTCC-PRO-EXCHANGE-SERVER|98=0|108=300|141=Y|10=107|
8=FIX.4.4|9=95|35=A|34=1|49=CLIENT255|52=20151104-12:07:04.348|56=BTCC-PRO-EXCHANGE-SERVER|98=0|108=300|141=Y|10=101|
8=FIX.4.4|9=95|35=A|34=1|49=CLIENT255|52=20151104-12:07:09.345|56=BTCC-PRO-EXCHANGE-SERVER|98=0|108=300|141=Y|10=103|
8=FIX.4.4|9=95|35=A|34=1|49=CLIENT255|52=20151104-12:07:14.344|56=BTCC-PRO-EXCHANGE-SERVER|98=0|108=300|141=Y|10=098|
8=FIX.4.4|9=95|35=A|34=1|49=CLIENT255|52=20151104-12:07:19.347|56=BTCC-PRO-EXCHANGE-SERVER|98=0|108=300|141=Y|10=106|
8=FIX.4.4|9=95|35=A|34=1|49=CLIENT255|52=20151104-12:07:24.343|56=BTCC-PRO-EXCHANGE-SERVER|98=0|108=300|141=Y|10=098|
8=FIX.4.4|9=95|35=A|34=1|49=CLIENT255|52=20151104-12:07:29.347|56=BTCC-PRO-EXCHANGE-SERVER|98=0|108=300|141=Y|10=107|
8=FIX.4.4|9=95|35=A|34=1|49=CLIENT255|52=20151104-12:07:34.345|56=BTCC-PRO-EXCHANGE-SERVER|98=0|108=300|141=Y|10=101|
8=FIX.4.4|9=95|35=A|34=1|49=CLIENT255|52=20151104-12:07:39.344|56=BTCC-PRO-EXCHANGE-SERVER|98=0|108=300|141=Y|10=105|
8=FIX.4.4|9=95|35=A|34=1|49=CLIENT255|52=20151104-12:07:44.342|56=BTCC-PRO-EXCHANGE-SERVER|98=0|108=300|141=Y|10=099|
8=FIX.4.4|9=95|35=A|34=1|49=CLIENT255|52=20151104-12:07:49.369|56=BTCC-PRO-EXCHANGE-SERVER|98=0|108=300|141=Y|10=113|
8=FIX.4.4|9=95|35=A|34=1|49=CLIENT255|52=20151104-12:07:55.345|56=BTCC-PRO-EXCHANGE-SERVER|98=0|108=300|141=Y|10=104|
8=FIX.4.4|9=95|35=A|34=1|49=CLIENT255|52=20151104-12:08:00.345|56=BTCC-PRO-EXCHANGE-SERVER|98=0|108=300|141=Y|10=095|
8=FIX.4.4|9=95|35=A|34=1|49=CLIENT255|52=20151104-12:08:05.346|56=BTCC-PRO-EXCHANGE-SERVER|98=0|108=300|141=Y|10=101|
8=FIX.4.4|9=95|35=A|34=1|49=CLIENT255|52=20151104-12:08:10.342|56=BTCC-PRO-EXCHANGE-SERVER|98=0|108=300|141=Y|10=093|
8=FIX.4.4|9=95|35=A|34=1|49=CLIENT255|52=20151104-12:08:15.344|56=BTCC-PRO-EXCHANGE-SERVER|98=0|108=300|141=Y|10=100|
8=FIX.4.4|9=95|35=A|34=1|49=CLIENT255|52=20151104-12:08:20.342|56=BTCC-PRO-EXCHANGE-SERVER|98=0|108=300|141=Y|10=094|
8=FIX.4.4|9=95|35=A|34=1|49=CLIENT255|52=20151104-12:08:25.345|56=BTCC-PRO-EXCHANGE-SERVER|98=0|108=300|141=Y|10=102|
8=FIX.4.4|9=95|35=A|34=1|49=CLIENT255|52=20151104-12:08:57.772|56=BTCC-PRO-EXCHANGE-SERVER|98=0|108=300|141=Y|10=111|
8=FIX.4.4|9=95|35=A|34=1|49=BTCC-PRO-EXCHANGE-SERVER|52=20151104-12:08:58.765|56=CLIENT255|98=0|108=300|141=Y|10=114|
8=FIX.4.4|9=76|35=0|34=2|49=BTCC-PRO-EXCHANGE-SERVER|52=20151104-12:13:58.999|56=CLIENT255|10=240|
8=FIX.4.4|9=76|35=0|34=2|49=CLIENT255|52=20151104-12:13:58.047|56=BTCC-PRO-EXCHANGE-SERVER|10=224|
8=FIX.4.4|9=95|35=A|34=1|49=CLIENT255|52=20151104-12:15:18.469|56=BTCC-PRO-EXCHANGE-SERVER|98=0|108=300|141=Y|10=109|
8=FIX.4.4|9=95|35=A|34=1|49=CLIENT255|52=20151104-12:15:23.455|56=BTCC-PRO-EXCHANGE-SERVER|98=0|108=300|141=Y|10=100|
8=FIX.4.4|9=95|35=A|34=1|49=CLIENT255|52=20151104-12:15:28.455|56=BTCC-PRO-EXCHANGE-SERVER|98=0|108=300|141=Y|10=105|
8=FIX.4.4|9=95|35=A|34=1|49=CLIENT255|52=20151104-12:15:33.453|56=BTCC-PRO-EXCHANGE-SERVER|98=0|108=300|141=Y|10=099|
8=FIX.4.4|9=95|35=A|34=1|49=CLIENT255|52=20151104-12:15:48.099|56=BTCC-PRO-EXCHANGE-SERVER|98=0|108=300|141=Y|10=111|
8=FIX.4.4|9=95|35=A|34=1|49=BTCC-PRO-EXCHANGE-SERVER|52=20151104-12:15:49.105|56=CLIENT255|98=0|108=300|141=Y|10=100|
8=FIX.4.4|9=95|35=A|34=1|49=CLIENT255|52=20151104-12:16:36.610|56=BTCC-PRO-EXCHANGE-SERVER|98=0|108=300|141=Y|10=098|
8=FIX.4.4|9=95|35=A|34=1|49=CLIENT255|52=20151104-12:16:41.595|56=BTCC-PRO-EXCHANGE-SERVER|98=0|108=300|141=Y|10=106|
8=FIX.4.4|9=95|35=A|34=1|49=CLIENT255|52=20151104-12:16:46.597|56=BTCC-PRO-EXCHANGE-SERVER|98=0|108=300|141=Y|10=113|
8=FIX.4.4|9=95|35=A|34=1|49=CLIENT255|52=20151104-12:16:51.597|56=BTCC-PRO-EXCHANGE-SERVER|98=0|108=300|141=Y|10=109|
8=FIX.4.4|9=95|35=A|34=1|49=CLIENT255|52=20151104-12:16:56.595|56=BTCC-PRO-EXCHANGE-SERVER|98=0|108=300|141=Y|10=112|
8=FIX.4.4|9=95|35=A|34=1|49=CLIENT255|52=20151104-12:17:01.595|56=BTCC-PRO-EXCHANGE-SERVER|98=0|108=300|141=Y|10=103|
8=FIX.4.4|9=95|35=A|34=1|49=CLIENT255|52=20151104-12:17:04.399|56=BTCC-PRO-EXCHANGE-SERVER|98=0|108=300|141=Y|10=108|
8=FIX.4.4|9=95|35=A|34=1|49=CLIENT255|52=20151104-12:17:06.596|56=BTCC-PRO-EXCHANGE-SERVER|98=0|108=300|141=Y|10=109|
8=FIX.4.4|9=95|35=A|34=1|49=CLIENT255|52=20151104-12:17:09.389|56=BTCC-PRO-EXCHANGE-SERVER|98=0|108=300|141=Y|10=112|
8=FIX.4.4|9=95|35=A|34=1|49=CLIENT255|52=20151104-12:17:18.120|56=BTCC-PRO-EXCHANGE-SERVER|98=0|108=300|141=Y|10=095|
8=FIX.4.4|9=95|35=A|34=1|49=BTCC-PRO-EXCHANGE-SERVER|52=20151104-12:17:19.112|56=CLIENT255|98=0|108=300|141=Y|10=097|
8=FIX.4.4|9=95|35=A|34=1|49=CLIENT255|52=20151105-02:21:39.249|56=BTCC-PRO-EXCHANGE-SERVER|98=0|108=300|141=Y|10=105|
8=FIX.4.4|9=95|35=A|34=1|49=BTCC-PRO-EXCHANGE-SERVER|52=20151105-02:21:40.288|56=CLIENT255|98=0|108=300|141=Y|10=100|
8=FIX.4.4|9=95|35=A|34=1|49=CLIENT255|52=20151105-02:23:32.817|56=BTCC-PRO-EXCHANGE-SERVER|98=0|108=300|141=Y|10=101|
8=FIX.4.4|9=95|35=A|34=1|49=BTCC-PRO-EXCHANGE-SERVER|52=20151105-02:23:33.855|56=CLIENT255|98=0|108=300|141=Y|10=104|
8=FIX.4.4|9=76|35=0|34=2|49=BTCC-PRO-EXCHANGE-SERVER|52=20151105-02:28:33.999|56=CLIENT255|10=239|
8=FIX.4.4|9=76|35=0|34=2|49=CLIENT255|52=20151105-02:28:33.000|56=BTCC-PRO-EXCHANGE-SERVER|10=212|
8=FIX.4.4|9=76|35=0|34=3|49=BTCC-PRO-EXCHANGE-SERVER|52=20151105-02:33:33.999|56=CLIENT255|10=236|
8=FIX.4.4|9=76|35=0|34=3|49=CLIENT255|52=20151105-02:33:32.999|56=BTCC-PRO-EXCHANGE-SERVER|10=235|
8=FIX.4.4|9=95|35=A|34=1|49=CLIENT255|52=20151105-02:36:02.681|56=BTCC-PRO-EXCHANGE-SERVER|98=0|108=300|141=Y|10=101|
8=FIX.4.4|9=95|35=A|34=1|49=BTCC-PRO-EXCHANGE-SERVER|52=20151105-02:36:03.717|56=CLIENT255|98=0|108=300|141=Y|10=102|
8=FIX.4.4|9=311|35=D|34=2|49=CLIENT255|52=20151105-02:36:02.722|56=BTCC-PRO-EXCHANGE-SERVER|1=1446690960562000:Basic NjQ0NmZhODMtODAzZS00MmYwLTk4NmItZGZiMjczZTE4MTA3OjczZDcxZWQxZDRlYTJkYzgwZDRkZDU4MWJkM2Q4MmJmODhlN2M0M2M=|11=3e9f1526-11ed-4ceb-8ce1-c63a13de8dcb|38=1|40=2|44=2388.3|54=1|55=XBTCNY|59=1|60=20151105-02:36:00.840|10=224|
8=FIX.4.4|9=293|35=8|34=2|49=BTCC-PRO-EXCHANGE-SERVER|52=20151105-02:36:03.928|56=CLIENT255|6=0|11=3e9f1526-11ed-4ceb-8ce1-c63a13de8dcb|14=0|17=a91f4346-9a37-41e0-af60-dc5151e43c83|31=0|32=0|37=cb319d54b9dd440690bd2dd8882ac939|38=1|39=A|40=2|44=2388.3|54=1|55=XBTCNY|59=1|60=20151105-02:36:14.311|150=A|151=1|10=186|
8=FIX.4.4|9=293|35=8|34=3|49=BTCC-PRO-EXCHANGE-SERVER|52=20151105-02:36:03.928|56=CLIENT255|6=0|11=3e9f1526-11ed-4ceb-8ce1-c63a13de8dcb|14=0|17=707256e9-6491-490a-aeee-44d7178c473b|31=0|32=0|37=cb319d54b9dd440690bd2dd8882ac939|38=1|39=0|40=2|44=2388.3|54=1|55=XBTCNY|59=1|60=20151105-02:36:14.311|150=0|151=1|10=128|
8=FIX.4.4|9=95|35=A|34=1|49=CLIENT255|52=20151105-02:36:30.617|56=BTCC-PRO-EXCHANGE-SERVER|98=0|108=300|141=Y|10=101|
8=FIX.4.4|9=95|35=A|34=1|49=CLIENT255|52=20151105-02:36:35.613|56=BTCC-PRO-EXCHANGE-SERVER|98=0|108=300|141=Y|10=102|
8=FIX.4.4|9=95|35=A|34=1|49=CLIENT255|52=20151105-02:36:44.425|56=BTCC-PRO-EXCHANGE-SERVER|98=0|108=300|141=Y|10=103|
8=FIX.4.4|9=95|35=A|34=1|49=BTCC-PRO-EXCHANGE-SERVER|52=20151105-02:36:45.462|56=CLIENT255|98=0|108=300|141=Y|10=105|
8=FIX.4.4|9=311|35=D|34=2|49=CLIENT255|52=20151105-02:36:44.470|56=BTCC-PRO-EXCHANGE-SERVER|1=1446691002352000:Basic NjQ0NmZhODMtODAzZS00MmYwLTk4NmItZGZiMjczZTE4MTA3OjAzMzc0NTYzOWViMGY2NmM1NTEwOGQ5Nzc0NDRhMTYzNDkwZWIzOTA=|11=be609be0-a20f-4326-8bf1-d8c05d6ea153|38=1|40=2|44=2388.3|54=1|55=XBTCNY|59=1|60=20151105-02:36:42.618|10=050|
8=FIX.4.4|9=293|35=8|34=2|49=BTCC-PRO-EXCHANGE-SERVER|52=20151105-02:36:45.684|56=CLIENT255|6=0|11=be609be0-a20f-4326-8bf1-d8c05d6ea153|14=0|17=40be72c8-32bc-44d1-90db-44b948eba434|31=0|32=0|37=b731909549c3413fb20d5b40b3fc3a50|38=1|39=A|40=2|44=2388.3|54=1|55=XBTCNY|59=1|60=20151105-02:36:56.061|150=A|151=1|10=016|
8=FIX.4.4|9=293|35=8|34=3|49=BTCC-PRO-EXCHANGE-SERVER|52=20151105-02:36:45.685|56=CLIENT255|6=0|11=be609be0-a20f-4326-8bf1-d8c05d6ea153|14=0|17=f2b29bed-f758-4595-ba8a-76cea7253fb4|31=0|32=0|37=b731909549c3413fb20d5b40b3fc3a50|38=1|39=0|40=2|44=2388.3|54=1|55=XBTCNY|59=1|60=20151105-02:36:56.077|150=0|151=1|10=112|
8=FIX.4.4|9=95|35=A|34=1|49=CLIENT255|52=20151105-02:38:31.088|56=BTCC-PRO-EXCHANGE-SERVER|98=0|108=300|141=Y|10=106|
8=FIX.4.4|9=95|35=A|34=1|49=CLIENT255|52=20151105-02:38:36.083|56=BTCC-PRO-EXCHANGE-SERVER|98=0|108=300|141=Y|10=106|
8=FIX.4.4|9=95|35=A|34=1|49=CLIENT255|52=20151105-02:38:48.072|56=BTCC-PRO-EXCHANGE-SERVER|98=0|108=300|141=Y|10=107|
8=FIX.4.4|9=95|35=A|34=1|49=BTCC-PRO-EXCHANGE-SERVER|52=20151105-02:38:49.109|56=CLIENT255|98=0|108=300|141=Y|10=109|
8=FIX.4.4|9=95|35=A|34=1|49=CLIENT255|52=20151105-02:43:15.864|56=BTCC-PRO-EXCHANGE-SERVER|98=0|108=300|141=Y|10=106|
8=FIX.4.4|9=95|35=A|34=1|49=BTCC-PRO-EXCHANGE-SERVER|52=20151105-02:43:16.901|56=CLIENT255|98=0|108=300|141=Y|10=099|
8=FIX.4.4|9=95|35=A|34=1|49=CLIENT255|52=20151105-02:43:38.468|56=BTCC-PRO-EXCHANGE-SERVER|98=0|108=300|141=Y|10=111|
8=FIX.4.4|9=95|35=A|34=1|49=BTCC-PRO-EXCHANGE-SERVER|52=20151105-02:43:39.504|56=CLIENT255|98=0|108=300|141=Y|10=103|
8=FIX.4.4|9=95|35=A|34=1|49=CLIENT255|52=20151105-02:43:59.037|56=BTCC-PRO-EXCHANGE-SERVER|98=0|108=300|141=Y|10=106|
8=FIX.4.4|9=95|35=A|34=1|49=BTCC-PRO-EXCHANGE-SERVER|52=20151105-02:44:00.074|56=CLIENT255|98=0|108=300|141=Y|10=094|
8=FIX.4.4|9=95|35=A|34=1|49=CLIENT255|52=20151105-02:44:39.112|56=BTCC-PRO-EXCHANGE-SERVER|98=0|108=300|141=Y|10=099|
8=FIX.4.4|9=95|35=A|34=1|49=BTCC-PRO-EXCHANGE-SERVER|52=20151105-02:44:40.148|56=CLIENT255|98=0|108=300|141=Y|10=100|
8=FIX.4.4|9=95|35=A|34=1|49=CLIENT255|52=20151105-02:45:43.560|56=BTCC-PRO-EXCHANGE-SERVER|98=0|108=300|141=Y|10=102|
8=FIX.4.4|9=95|35=A|34=1|49=BTCC-PRO-EXCHANGE-SERVER|52=20151105-02:45:44.596|56=CLIENT255|98=0|108=300|141=Y|10=112|
8=FIX.4.4|9=95|35=A|34=1|49=CLIENT255|52=20151105-02:46:14.120|56=BTCC-PRO-EXCHANGE-SERVER|98=0|108=300|141=Y|10=093|
8=FIX.4.4|9=95|35=A|34=1|49=BTCC-PRO-EXCHANGE-SERVER|52=20151105-02:45:59.133|56=CLIENT255|98=0|108=300|141=Y|10=105|
8=FIX.4.4|9=95|35=A|34=1|49=CLIENT255|52=20151105-02:46:57.208|56=BTCC-PRO-EXCHANGE-SERVER|98=0|108=300|141=Y|10=107|
8=FIX.4.4|9=95|35=A|34=1|49=BTCC-PRO-EXCHANGE-SERVER|52=20151105-02:46:42.219|56=CLIENT255|98=0|108=300|141=Y|10=103|
8=FIX.4.4|9=311|35=D|34=2|49=CLIENT255|52=20151105-02:46:57.257|56=BTCC-PRO-EXCHANGE-SERVER|1=1446691615087000:Basic YTU3MGExMWItZDI1Yy00OGQyLWFiNjYtYzQ2YzRkNWY5ZDY2OjM2ODQ4NTkyNjQ5NTYwMjA4MjJjYjBjODUwZmQ4MjQwZmY3YTVhY2M=|11=4f6b90ad-afd4-415a-a6fe-d63932b4aa48|38=1|40=2|44=2388.3|54=1|55=XBTCNY|59=1|60=20151105-02:46:55.373|10=111|
8=FIX.4.4|9=95|35=A|34=1|49=CLIENT255|52=20151105-03:12:39.475|56=BTCC-PRO-EXCHANGE-SERVER|98=0|108=300|141=Y|10=107|
8=FIX.4.4|9=95|35=A|34=1|49=BTCC-PRO-EXCHANGE-SERVER|52=20151105-03:12:24.465|56=CLIENT255|98=0|108=300|141=Y|10=100|
8=FIX.4.4|9=311|35=D|34=2|49=CLIENT255|52=20151105-03:12:39.524|56=BTCC-PRO-EXCHANGE-SERVER|1=1446693157291000:Basic YTU3MGExMWItZDI1Yy00OGQyLWFiNjYtYzQ2YzRkNWY5ZDY2OmFhYmNmMTMxNzM0Y2RkMzcyNzg0ZWQ2ZDY2Nzc5MTFmMzU0Y2M4MTM=|11=caa110e6-f30c-4ce1-9551-98b118c55e0d|38=1|40=2|44=2388.3|54=1|55=XBTCNY|59=1|60=20151105-03:12:37.599|10=188|
8=FIX.4.4|9=238|35=8|34=2|49=BTCC-PRO-EXCHANGE-SERVER|52=20151105-03:12:26.018|56=CLIENT255|6=0|11=caa110e6-f30c-4ce1-9551-98b118c55e0d|14=0|17=b3cc8add-344a-474d-9ae9-b768368e2e5c|37=-1|39=8|44=0|54=1|55=XBTCNY|58=Margin Insufficient|103=99|150=8|151=0|10=146|
8=FIX.4.4|9=95|35=A|34=1|49=CLIENT255|52=20151105-03:12:57.551|56=BTCC-PRO-EXCHANGE-SERVER|98=0|108=300|141=Y|10=102|
8=FIX.4.4|9=95|35=A|34=1|49=BTCC-PRO-EXCHANGE-SERVER|52=20151105-03:12:42.541|56=CLIENT255|98=0|108=300|141=Y|10=095|
8=FIX.4.4|9=311|35=D|34=2|49=CLIENT255|52=20151105-03:12:57.596|56=BTCC-PRO-EXCHANGE-SERVER|1=1446693175374000:Basic YTU3MGExMWItZDI1Yy00OGQyLWFiNjYtYzQ2YzRkNWY5ZDY2OmU0NGZmZGNiOTgzNGE0OGVlYThmZmMwN2EzODNmNjliYjk5YzhlOWU=|11=167a90ea-fceb-483a-a007-b66c7fc9fd8a|38=1|40=2|44=2388.3|54=1|55=XBTCNY|59=1|60=20151105-03:12:55.675|10=099|
8=FIX.4.4|9=238|35=8|34=2|49=BTCC-PRO-EXCHANGE-SERVER|52=20151105-03:12:43.367|56=CLIENT255|6=0|11=167a90ea-fceb-483a-a007-b66c7fc9fd8a|14=0|17=d50785f8-4370-48ce-9d72-3095295a4224|37=-1|39=8|44=0|54=1|55=XBTCNY|58=Margin Insufficient|103=99|150=8|151=0|10=235|
8=FIX.4.4|9=95|35=A|34=1|49=CLIENT255|52=20151105-03:13:10.293|56=BTCC-PRO-EXCHANGE-SERVER|98=0|108=300|141=Y|10=095|
8=FIX.4.4|9=95|35=A|34=1|49=BTCC-PRO-EXCHANGE-SERVER|52=20151105-03:12:55.293|56=CLIENT255|98=0|108=300|141=Y|10=103|
8=FIX.4.4|9=95|35=A|34=1|49=CLIENT255|52=20151105-03:35:42.888|56=BTCC-PRO-EXCHANGE-SERVER|98=0|108=300|141=Y|10=114|
8=FIX.4.4|9=95|35=A|34=1|49=BTCC-PRO-EXCHANGE-SERVER|52=20151105-03:35:27.861|56=CLIENT255|98=0|108=300|141=Y|10=108|
8=FIX.4.4|9=201|35=V|34=2|49=CLIENT255|52=20151105-03:35:42.936|56=BTCC-PRO-EXCHANGE-SERVER|262=req111|263=0|264=10|146=1|55=XBTCNY|267=13|269=0|269=1|269=2|269=3|269=4|269=5|269=6|269=7|269=8|269=9|269=A|269=B|269=C|10=025|
8=FIX.4.4|9=820|35=W|34=2|49=BTCC-PRO-EXCHANGE-SERVER|52=20151105-03:35:27.943|56=CLIENT255|55=XBTCNY|262=req111|268=27|269=0|270=1991|271=15|269=0|270=1980.4|271=10|269=0|270=1980.3|271=3|269=0|270=1980.2|271=10|269=0|270=1980|271=2|269=0|270=1978|271=20|269=0|270=1976.3|271=15|269=0|270=1975.1|271=1|269=0|270=1970|271=10|269=0|270=1961.5|271=2|269=0|270=1960|271=20|269=1|270=1998|271=5|269=1|270=1999.9|271=10|269=1|270=2010|271=8|269=1|270=2015|271=3|269=1|270=2025|271=5|269=1|270=2030|271=7|269=1|270=2045|271=3|269=1|270=2048|271=7|269=1|270=2049|271=50|269=1|270=2050|271=2|269=1|270=2055|271=13|269=2|270=2015|272=20151028|273=15:08:59.812|269=5|270=1902.9|272=20151028|273=15:08:59.812|269=7|270=2054.9|272=20151028|273=15:08:59.812|269=8|270=1902.9|272=20151028|273=15:08:59.812|269=B|271=440|272=20151028|273=15:08:59.812|10=070|
8=FIX.4.4|9=95|35=A|34=1|49=CLIENT255|52=20151105-05:50:16.451|56=BTCC-PRO-EXCHANGE-SERVER|98=0|108=300|141=Y|10=100|
8=FIX.4.4|9=95|35=A|34=1|49=BTCC-PRO-EXCHANGE-SERVER|52=20151105-05:50:01.353|56=CLIENT255|98=0|108=300|141=Y|10=095|
8=FIX.4.4|9=95|35=A|34=1|49=CLIENT255|52=20151105-06:02:27.791|56=BTCC-PRO-EXCHANGE-SERVER|98=0|108=300|141=Y|10=107|
8=FIX.4.4|9=95|35=A|34=1|49=BTCC-PRO-EXCHANGE-SERVER|52=20151105-06:02:12.658|56=CLIENT255|98=0|108=300|141=Y|10=103|
8=FIX.4.4|9=95|35=A|34=1|49=CLIENT255|52=20151105-06:05:34.723|56=BTCC-PRO-EXCHANGE-SERVER|98=0|108=300|141=Y|10=103|
8=FIX.4.4|9=95|35=A|34=1|49=BTCC-PRO-EXCHANGE-SERVER|52=20151105-06:05:19.594|56=CLIENT255|98=0|108=300|141=Y|10=112|
8=FIX.4.4|9=95|35=A|34=1|49=CLIENT255|52=20151105-06:06:06.678|56=BTCC-PRO-EXCHANGE-SERVER|98=0|108=300|141=Y|10=112|
8=FIX.4.4|9=95|35=A|34=1|49=BTCC-PRO-EXCHANGE-SERVER|52=20151105-06:05:51.539|56=CLIENT255|98=0|108=300|141=Y|10=107|
8=FIX.4.4|9=95|35=A|34=1|49=CLIENT255|52=20151105-06:11:10.091|56=BTCC-PRO-EXCHANGE-SERVER|98=0|108=300|141=Y|10=092|
8=FIX.4.4|9=95|35=A|34=1|49=BTCC-PRO-EXCHANGE-SERVER|52=20151105-06:10:54.951|56=CLIENT255|98=0|108=300|141=Y|10=104|
8=FIX.4.4|9=95|35=A|34=1|49=CLIENT255|52=20151105-06:13:07.913|56=BTCC-PRO-EXCHANGE-SERVER|98=0|108=300|141=Y|10=103|
8=FIX.4.4|9=95|35=A|34=1|49=BTCC-PRO-EXCHANGE-SERVER|52=20151105-06:12:52.769|56=CLIENT255|98=0|108=300|141=Y|10=111|
8=FIX.4.4|9=95|35=A|34=1|49=CLIENT255|52=20151105-06:13:59.332|56=BTCC-PRO-EXCHANGE-SERVER|98=0|108=300|141=Y|10=105|
8=FIX.4.4|9=95|35=A|34=1|49=BTCC-PRO-EXCHANGE-SERVER|52=20151105-06:13:44.191|56=CLIENT255|98=0|108=300|141=Y|10=102|
8=FIX.4.4|9=311|35=D|34=2|49=CLIENT255|52=20151105-06:13:59.378|56=BTCC-PRO-EXCHANGE-SERVER|1=1446704037049000:Basic YTU3MGExMWItZDI1Yy00OGQyLWFiNjYtYzQ2YzRkNWY5ZDY2OjYwZjNhOGI3ZTg4YjRhMTVjMWZjOGM4OThiOTYwZDAyZDVkYWRlMzc=|11=c0fcd58c-9396-4d4b-a748-d8547df6fbb5|38=1|40=2|44=2388.3|54=1|55=XBTCNY|59=1|60=20151105-06:13:57.449|10=000|
8=FIX.4.4|9=238|35=8|34=2|49=BTCC-PRO-EXCHANGE-SERVER|52=20151105-06:13:45.113|56=CLIENT255|6=0|11=c0fcd58c-9396-4d4b-a748-d8547df6fbb5|14=0|17=d0e0807d-8e53-454e-9da0-d226a3d478cf|37=-1|39=8|44=0|54=1|55=XBTCNY|58=Margin Insufficient|103=99|150=8|151=0|10=173|
8=FIX.4.4|9=95|35=A|34=1|49=CLIENT255|52=20151105-06:14:39.409|56=BTCC-PRO-EXCHANGE-SERVER|98=0|108=300|141=Y|10=109|
8=FIX.4.4|9=95|35=A|34=1|49=BTCC-PRO-EXCHANGE-SERVER|52=20151105-06:14:40.480|56=CLIENT255|98=0|108=300|141=Y|10=100|
8=FIX.4.4|9=95|35=A|34=1|49=CLIENT255|52=20151105-06:15:05.560|56=BTCC-PRO-EXCHANGE-SERVER|98=0|108=300|141=Y|10=101|
8=FIX.4.4|9=95|35=A|34=1|49=BTCC-PRO-EXCHANGE-SERVER|52=20151105-06:15:06.589|56=CLIENT255|98=0|108=300|141=Y|10=113|
8=FIX.4.4|9=95|35=A|34=1|49=CLIENT255|52=20151105-06:16:40.354|56=BTCC-PRO-EXCHANGE-SERVER|98=0|108=300|141=Y|10=102|
8=FIX.4.4|9=95|35=A|34=1|49=BTCC-PRO-EXCHANGE-SERVER|52=20151105-06:16:41.383|56=CLIENT255|98=0|108=300|141=Y|10=105|
8=FIX.4.4|9=311|35=D|34=2|49=CLIENT255|52=20151105-06:16:40.399|56=BTCC-PRO-EXCHANGE-SERVER|1=1446704197876000:Basic NjQ0NmZhODMtODAzZS00MmYwLTk4NmItZGZiMjczZTE4MTA3OjkwZDAwYmRlMTQ3NTYwZDhhMjBkNzM1NmYzOGFlMGZlODE3MWNiZTQ=|11=12009bc5-2b11-409a-b077-255c65a92f18|38=1|40=2|44=2388.3|54=1|55=XBTCNY|59=1|60=20151105-06:16:38.180|10=180|
8=FIX.4.4|9=293|35=8|34=2|49=BTCC-PRO-EXCHANGE-SERVER|52=20151105-06:16:41.571|56=CLIENT255|6=0|11=12009bc5-2b11-409a-b077-255c65a92f18|14=0|17=d580b875-7fa0-41ac-9336-4ddffd8c5008|31=0|32=0|37=7953910d5643411497a5a0410c7b9bb9|38=1|39=A|40=2|44=2388.3|54=1|55=XBTCNY|59=1|60=20151105-06:16:52.349|150=A|151=1|10=173|
8=FIX.4.4|9=293|35=8|34=3|49=BTCC-PRO-EXCHANGE-SERVER|52=20151105-06:16:41.571|56=CLIENT255|6=0|11=12009bc5-2b11-409a-b077-255c65a92f18|14=0|17=4a5c6057-1cde-4f70-a1bd-93132fcd0cad|31=0|32=0|37=7953910d5643411497a5a0410c7b9bb9|38=1|39=0|40=2|44=2388.3|54=1|55=XBTCNY|59=1|60=20151105-06:16:52.349|150=0|151=1|10=001|
8=FIX.4.4|9=95|35=A|34=1|49=CLIENT255|52=20151105-06:17:01.282|56=BTCC-PRO-EXCHANGE-SERVER|98=0|108=300|141=Y|10=100|
8=FIX.4.4|9=95|35=A|34=1|49=BTCC-PRO-EXCHANGE-SERVER|52=20151105-06:17:02.313|56=CLIENT255|98=0|108=300|141=Y|10=096|
8=FIX.4.4|9=95|35=A|34=1|49=CLIENT255|52=20151105-06:30:19.826|56=BTCC-PRO-EXCHANGE-SERVER|98=0|108=300|141=Y|10=108|
8=FIX.4.4|9=95|35=A|34=1|49=BTCC-PRO-EXCHANGE-SERVER|52=20151105-06:30:20.856|56=CLIENT255|98=0|108=300|141=Y|10=103|
8=FIX.4.4|9=95|35=A|34=1|49=CLIENT255|52=20151105-06:30:28.532|56=BTCC-PRO-EXCHANGE-SERVER|98=0|108=300|141=Y|10=102|
8=FIX.4.4|9=95|35=A|34=1|49=BTCC-PRO-EXCHANGE-SERVER|52=20151105-06:30:29.561|56=CLIENT255|98=0|108=300|141=Y|10=105|
8=FIX.4.4|9=95|35=A|34=1|49=CLIENT255|52=20151105-06:32:01.088|56=BTCC-PRO-EXCHANGE-SERVER|98=0|108=300|141=Y|10=101|
8=FIX.4.4|9=95|35=A|34=1|49=BTCC-PRO-EXCHANGE-SERVER|52=20151105-06:32:02.139|56=CLIENT255|98=0|108=300|141=Y|10=099|
8=FIX.4.4|9=95|35=A|34=1|49=CLIENT255|52=20151105-06:38:08.254|56=BTCC-PRO-EXCHANGE-SERVER|98=0|108=300|141=Y|10=109|
8=FIX.4.4|9=95|35=A|34=1|49=BTCC-PRO-EXCHANGE-SERVER|52=20151105-06:38:09.308|56=CLIENT255|98=0|108=300|141=Y|10=110|
8=FIX.4.4|9=95|35=A|34=1|49=CLIENT255|52=20151105-06:41:41.558|56=BTCC-PRO-EXCHANGE-SERVER|98=0|108=300|141=Y|10=107|
8=FIX.4.4|9=95|35=A|34=1|49=BTCC-PRO-EXCHANGE-SERVER|52=20151105-06:41:42.920|56=CLIENT255|98=0|108=300|141=Y|10=101|
8=FIX.4.4|9=95|35=A|34=1|49=CLIENT255|52=20151105-06:42:04.211|56=BTCC-PRO-EXCHANGE-SERVER|98=0|108=300|141=Y|10=093|
8=FIX.4.4|9=95|35=A|34=1|49=BTCC-PRO-EXCHANGE-SERVER|52=20151105-06:42:05.267|56=CLIENT255|98=0|108=300|141=Y|10=105|
8=FIX.4.4|9=95|35=A|34=1|49=CLIENT255|52=20151105-06:48:07.753|56=BTCC-PRO-EXCHANGE-SERVER|98=0|108=300|141=Y|10=113|
8=FIX.4.4|9=95|35=A|34=1|49=BTCC-PRO-EXCHANGE-SERVER|52=20151105-06:48:08.783|56=CLIENT255|98=0|108=300|141=Y|10=117|
8=FIX.4.4|9=95|35=A|34=1|49=CLIENT255|52=20151105-06:51:16.519|56=BTCC-PRO-EXCHANGE-SERVER|98=0|108=300|141=Y|10=107|
8=FIX.4.4|9=95|35=A|34=1|49=BTCC-PRO-EXCHANGE-SERVER|52=20151105-06:51:17.593|56=CLIENT255|98=0|108=300|141=Y|10=110|
8=FIX.4.4|9=95|35=A|34=1|49=CLIENT255|52=20151105-06:51:48.011|56=BTCC-PRO-EXCHANGE-SERVER|98=0|108=300|141=Y|10=099|
8=FIX.4.4|9=95|35=A|34=1|49=BTCC-PRO-EXCHANGE-SERVER|52=20151105-06:51:49.041|56=CLIENT255|98=0|108=300|141=Y|10=103|
8=FIX.4.4|9=95|35=A|34=1|49=CLIENT255|52=20151105-06:58:59.304|56=BTCC-PRO-EXCHANGE-SERVER|98=0|108=300|141=Y|10=113|
8=FIX.4.4|9=95|35=A|34=1|49=BTCC-PRO-EXCHANGE-SERVER|52=20151105-06:59:00.336|56=CLIENT255|98=0|108=300|141=Y|10=105|
8=FIX.4.4|9=311|35=D|34=2|49=CLIENT255|52=20151105-06:59:01.328|56=BTCC-PRO-EXCHANGE-SERVER|1=1446706736935000:Basic NjQ0NmZhODMtODAzZS00MmYwLTk4NmItZGZiMjczZTE4MTA3OjdiZGY1OTMwNjM1Y2MwZTBjYzdkMmEwZjg1MWI5YTkzMDBiOTU4ZmU=|11=70cfb109-6076-4e89-801b-85eff3553214|38=1|40=2|44=2681.3|54=1|55=XBTCNY|59=1|60=20151105-06:59:01.328|10=174|
8=FIX.4.4|9=95|35=A|34=1|49=CLIENT255|52=20151105-07:02:07.541|56=BTCC-PRO-EXCHANGE-SERVER|98=0|108=300|141=Y|10=099|
8=FIX.4.4|9=95|35=A|34=1|49=BTCC-PRO-EXCHANGE-SERVER|52=20151105-07:02:08.570|56=CLIENT255|98=0|108=300|141=Y|10=102|
8=FIX.4.4|9=95|35=A|34=1|49=CLIENT255|52=20151105-07:02:27.551|56=BTCC-PRO-EXCHANGE-SERVER|98=0|108=300|141=Y|10=102|
8=FIX.4.4|9=95|35=A|34=1|49=CLIENT255|52=20151105-07:02:38.915|56=BTCC-PRO-EXCHANGE-SERVER|98=0|108=300|141=Y|10=108|
8=FIX.4.4|9=95|35=A|34=1|49=BTCC-PRO-EXCHANGE-SERVER|52=20151105-07:02:39.941|56=CLIENT255|98=0|108=300|141=Y|10=108|
8=FIX.4.4|9=194|35=D|34=2|49=CLIENT255|52=20151105-07:02:40.941|56=BTCC-PRO-EXCHANGE-SERVER|1=Cclient222|11=1e57d9ee-c5bc-4a90-96dc-eda9052a6107|38=1|40=2|44=2681.3|54=1|55=XBTCNY|59=1|60=20151105-07:02:40.940|10=231|
8=FIX.4.4|9=95|35=A|34=1|49=CLIENT255|52=20151105-07:04:13.012|56=BTCC-PRO-EXCHANGE-SERVER|98=0|108=300|141=Y|10=091|
8=FIX.4.4|9=95|35=A|34=1|49=BTCC-PRO-EXCHANGE-SERVER|52=20151105-07:04:14.042|56=CLIENT255|98=0|108=300|141=Y|10=095|
8=FIX.4.4|9=76|35=0|34=2|49=CLIENT255|52=20151105-07:09:13.991|56=BTCC-PRO-EXCHANGE-SERVER|10=233|
8=FIX.4.4|9=76|35=0|34=2|49=BTCC-PRO-EXCHANGE-SERVER|52=20151105-07:09:14.999|56=CLIENT255|10=242|
8=FIX.4.4|9=76|35=0|34=3|49=CLIENT255|52=20151105-07:14:13.986|56=BTCC-PRO-EXCHANGE-SERVER|10=234|
8=FIX.4.4|9=76|35=0|34=3|49=BTCC-PRO-EXCHANGE-SERVER|52=20151105-07:14:14.999|56=CLIENT255|10=239|
8=FIX.4.4|9=95|35=A|34=1|49=CLIENT255|52=20151105-07:16:06.013|56=BTCC-PRO-EXCHANGE-SERVER|98=0|108=300|141=Y|10=097|
8=FIX.4.4|9=95|35=A|34=1|49=BTCC-PRO-EXCHANGE-SERVER|52=20151105-07:16:07.234|56=CLIENT255|98=0|108=300|141=Y|10=103|
8=FIX.4.4|9=95|35=A|34=1|49=CLIENT255|52=20151105-07:19:00.092|56=BTCC-PRO-EXCHANGE-SERVER|98=0|108=300|141=Y|10=101|
8=FIX.4.4|9=95|35=A|34=1|49=BTCC-PRO-EXCHANGE-SERVER|52=20151105-07:19:01.123|56=CLIENT255|98=0|108=300|141=Y|10=097|
8=FIX.4.4|9=95|35=A|34=1|49=CLIENT255|52=20151105-07:20:20.075|56=BTCC-PRO-EXCHANGE-SERVER|98=0|108=300|141=Y|10=096|
8=FIX.4.4|9=95|35=A|34=1|49=BTCC-PRO-EXCHANGE-SERVER|52=20151105-07:20:21.102|56=CLIENT255|98=0|108=300|141=Y|10=088|
8=FIX.4.4|9=311|35=D|34=2|49=CLIENT255|52=20151105-07:20:22.103|56=BTCC-PRO-EXCHANGE-SERVER|1=1446708017980000:Basic NjQ0NmZhODMtODAzZS00MmYwLTk4NmItZGZiMjczZTE4MTA3OjVkM2FjNTFmMzVlYWRiNmY1ZjlmMThmYjZkZTMxZmFhYjRiZDRmNDk=|11=cd388251-e556-466e-ab24-ca2ebbba3f4f|38=1|40=2|44=2681.3|54=1|55=XBTCNY|59=1|60=20151105-07:20:22.103|10=182|
8=FIX.4.4|9=293|35=8|34=2|49=BTCC-PRO-EXCHANGE-SERVER|52=20151105-07:20:23.251|56=CLIENT255|6=0|11=cd388251-e556-466e-ab24-ca2ebbba3f4f|14=0|17=1e560e6a-95e8-4fc9-a818-76dfe3213a61|31=0|32=0|37=9b702a43fb114f0287a05abeb9df1d46|38=1|39=A|40=2|44=2681.3|54=1|55=XBTCNY|59=1|60=20151105-07:20:34.148|150=A|151=1|10=221|
8=FIX.4.4|9=293|35=8|34=3|49=BTCC-PRO-EXCHANGE-SERVER|52=20151105-07:20:23.251|56=CLIENT255|6=0|11=cd388251-e556-466e-ab24-ca2ebbba3f4f|14=0|17=f9feec20-201c-445b-a2bf-47310abdb4b5|31=0|32=0|37=9b702a43fb114f0287a05abeb9df1d46|38=1|39=0|40=2|44=2681.3|54=1|55=XBTCNY|59=1|60=20151105-07:20:34.148|150=0|151=1|10=086|
8=FIX.4.4|9=95|35=A|34=1|49=CLIENT255|52=20151105-07:22:19.099|56=BTCC-PRO-EXCHANGE-SERVER|98=0|108=300|141=Y|10=112|
8=FIX.4.4|9=95|35=A|34=1|49=BTCC-PRO-EXCHANGE-SERVER|52=20151105-07:22:20.209|56=CLIENT255|98=0|108=300|141=Y|10=097|
8=FIX.4.4|9=308|35=D|34=2|49=CLIENT255|52=20151105-07:22:21.109|56=BTCC-PRO-EXCHANGE-SERVER|1=1446708136650000:Basic NjQ0NmZhODMtODAzZS00MmYwLTk4NmItZGZiMjczZTE4MTA3OmI3OGRmOTE3NzQ3M2ZlYjEwMGZlMWY1ZGFkNTBiNGE1NmQ4ODI3ZWM=|11=196f1555-6424-41de-a90c-691d16b30d5c|38=1|40=2|44=1.1|54=1|55=XBTCNY|59=1|60=20151105-07:22:21.108|10=171|
8=FIX.4.4|9=290|35=8|34=2|49=BTCC-PRO-EXCHANGE-SERVER|52=20151105-07:22:22.259|56=CLIENT255|6=0|11=196f1555-6424-41de-a90c-691d16b30d5c|14=0|17=260e22e3-b3e7-4861-8a1b-b5e1dd13228d|31=0|32=0|37=caeb296609164dd2b13b8e8e28987fbe|38=1|39=A|40=2|44=1.1|54=1|55=XBTCNY|59=1|60=20151105-07:22:33.164|150=A|151=1|10=038|
8=FIX.4.4|9=290|35=8|34=3|49=BTCC-PRO-EXCHANGE-SERVER|52=20151105-07:22:22.259|56=CLIENT255|6=0|11=196f1555-6424-41de-a90c-691d16b30d5c|14=0|17=bccfb37a-8ddd-4c1c-aef5-5400f009d1fa|31=0|32=0|37=caeb296609164dd2b13b8e8e28987fbe|38=1|39=0|40=2|44=1.1|54=1|55=XBTCNY|59=1|60=20151105-07:22:33.164|150=0|151=1|10=082|
8=FIX.4.4|9=308|35=D|34=3|49=CLIENT255|52=20151105-07:22:24.111|56=BTCC-PRO-EXCHANGE-SERVER|1=1446708136650000:Basic NjQ0NmZhODMtODAzZS00MmYwLTk4NmItZGZiMjczZTE4MTA3OmI3OGRmOTE3NzQ3M2ZlYjEwMGZlMWY1ZGFkNTBiNGE1NmQ4ODI3ZWM=|11=d16d7615-906a-43d3-af4f-e321e4f94073|38=1|40=2|44=2.1|54=1|55=XBTCNY|59=1|60=20151105-07:22:24.111|10=219|
8=FIX.4.4|9=308|35=D|34=4|49=CLIENT255|52=20151105-07:22:27.116|56=BTCC-PRO-EXCHANGE-SERVER|1=1446708136650000:Basic NjQ0NmZhODMtODAzZS00MmYwLTk4NmItZGZiMjczZTE4MTA3OmI3OGRmOTE3NzQ3M2ZlYjEwMGZlMWY1ZGFkNTBiNGE1NmQ4ODI3ZWM=|11=2d36d312-8393-4ca7-b0b7-8c966924f76f|38=1|40=2|44=3.1|54=1|55=XBTCNY|59=1|60=20151105-07:22:27.116|10=205|
8=FIX.4.4|9=85|35=2|34=4|49=BTCC-PRO-EXCHANGE-SERVER|52=20151105-07:22:28.138|56=CLIENT255|7=3|16=0|10=100|
8=FIX.4.4|9=339|35=D|34=3|43=Y|49=CLIENT255|52=20151105-07:22:27.182|56=BTCC-PRO-EXCHANGE-SERVER|122=20151105-07:22:24.111|1=1446708136650000:Basic NjQ0NmZhODMtODAzZS00MmYwLTk4NmItZGZiMjczZTE4MTA3OmI3OGRmOTE3NzQ3M2ZlYjEwMGZlMWY1ZGFkNTBiNGE1NmQ4ODI3ZWM=|11=d16d7615-906a-43d3-af4f-e321e4f94073|38=1|40=2|44=2.1|54=1|55=XBTCNY|59=1|60=20151105-07:22:24.111|10=221|
8=FIX.4.4|9=339|35=D|34=4|43=Y|49=CLIENT255|52=20151105-07:22:27.184|56=BTCC-PRO-EXCHANGE-SERVER|122=20151105-07:22:27.116|1=1446708136650000:Basic NjQ0NmZhODMtODAzZS00MmYwLTk4NmItZGZiMjczZTE4MTA3OmI3OGRmOTE3NzQ3M2ZlYjEwMGZlMWY1ZGFkNTBiNGE1NmQ4ODI3ZWM=|11=2d36d312-8393-4ca7-b0b7-8c966924f76f|38=1|40=2|44=3.1|54=1|55=XBTCNY|59=1|60=20151105-07:22:27.116|10=209|
8=FIX.4.4|9=85|35=2|34=5|49=BTCC-PRO-EXCHANGE-SERVER|52=20151105-07:22:28.263|56=CLIENT255|7=3|16=0|10=100|
8=FIX.4.4|9=339|35=D|34=3|43=Y|49=CLIENT255|52=20151105-07:22:27.275|56=BTCC-PRO-EXCHANGE-SERVER|122=20151105-07:22:24.111|1=1446708136650000:Basic NjQ0NmZhODMtODAzZS00MmYwLTk4NmItZGZiMjczZTE4MTA3OmI3OGRmOTE3NzQ3M2ZlYjEwMGZlMWY1ZGFkNTBiNGE1NmQ4ODI3ZWM=|11=d16d7615-906a-43d3-af4f-e321e4f94073|38=1|40=2|44=2.1|54=1|55=XBTCNY|59=1|60=20151105-07:22:24.111|10=224|
8=FIX.4.4|9=339|35=D|34=4|43=Y|49=CLIENT255|52=20151105-07:22:27.276|56=BTCC-PRO-EXCHANGE-SERVER|122=20151105-07:22:27.116|1=1446708136650000:Basic NjQ0NmZhODMtODAzZS00MmYwLTk4NmItZGZiMjczZTE4MTA3OmI3OGRmOTE3NzQ3M2ZlYjEwMGZlMWY1ZGFkNTBiNGE1NmQ4ODI3ZWM=|11=2d36d312-8393-4ca7-b0b7-8c966924f76f|38=1|40=2|44=3.1|54=1|55=XBTCNY|59=1|60=20151105-07:22:27.116|10=211|
8=FIX.4.4|9=85|35=2|34=6|49=BTCC-PRO-EXCHANGE-SERVER|52=20151105-07:22:28.355|56=CLIENT255|7=3|16=0|10=103|
8=FIX.4.4|9=339|35=D|34=3|43=Y|49=CLIENT255|52=20151105-07:22:27.365|56=BTCC-PRO-EXCHANGE-SERVER|122=20151105-07:22:24.111|1=1446708136650000:Basic NjQ0NmZhODMtODAzZS00MmYwLTk4NmItZGZiMjczZTE4MTA3OmI3OGRmOTE3NzQ3M2ZlYjEwMGZlMWY1ZGFkNTBiNGE1NmQ4ODI3ZWM=|11=d16d7615-906a-43d3-af4f-e321e4f94073|38=1|40=2|44=2.1|54=1|55=XBTCNY|59=1|60=20151105-07:22:24.111|10=224|
8=FIX.4.4|9=339|35=D|34=4|43=Y|49=CLIENT255|52=20151105-07:22:27.367|56=BTCC-PRO-EXCHANGE-SERVER|122=20151105-07:22:27.116|1=1446708136650000:Basic NjQ0NmZhODMtODAzZS00MmYwLTk4NmItZGZiMjczZTE4MTA3OmI3OGRmOTE3NzQ3M2ZlYjEwMGZlMWY1ZGFkNTBiNGE1NmQ4ODI3ZWM=|11=2d36d312-8393-4ca7-b0b7-8c966924f76f|38=1|40=2|44=3.1|54=1|55=XBTCNY|59=1|60=20151105-07:22:27.116|10=212|
8=FIX.4.4|9=85|35=2|34=7|49=BTCC-PRO-EXCHANGE-SERVER|52=20151105-07:22:28.444|56=CLIENT255|7=3|16=0|10=103|
8=FIX.4.4|9=339|35=D|34=3|43=Y|49=CLIENT255|52=20151105-07:22:27.454|56=BTCC-PRO-EXCHANGE-SERVER|122=20151105-07:22:24.111|1=1446708136650000:Basic NjQ0NmZhODMtODAzZS00MmYwLTk4NmItZGZiMjczZTE4MTA3OmI3OGRmOTE3NzQ3M2ZlYjEwMGZlMWY1ZGFkNTBiNGE1NmQ4ODI3ZWM=|11=d16d7615-906a-43d3-af4f-e321e4f94073|38=1|40=2|44=2.1|54=1|55=XBTCNY|59=1|60=20151105-07:22:24.111|10=223|
8=FIX.4.4|9=339|35=D|34=4|43=Y|49=CLIENT255|52=20151105-07:22:27.455|56=BTCC-PRO-EXCHANGE-SERVER|122=20151105-07:22:27.116|1=1446708136650000:Basic NjQ0NmZhODMtODAzZS00MmYwLTk4NmItZGZiMjczZTE4MTA3OmI3OGRmOTE3NzQ3M2ZlYjEwMGZlMWY1ZGFkNTBiNGE1NmQ4ODI3ZWM=|11=2d36d312-8393-4ca7-b0b7-8c966924f76f|38=1|40=2|44=3.1|54=1|55=XBTCNY|59=1|60=20151105-07:22:27.116|10=210|
8=FIX.4.4|9=85|35=2|34=8|49=BTCC-PRO-EXCHANGE-SERVER|52=20151105-07:22:28.534|56=CLIENT255|7=3|16=0|10=104|
8=FIX.4.4|9=339|35=D|34=3|43=Y|49=CLIENT255|52=20151105-07:22:27.544|56=BTCC-PRO-EXCHANGE-SERVER|122=20151105-07:22:24.111|1=1446708136650000:Basic NjQ0NmZhODMtODAzZS00MmYwLTk4NmItZGZiMjczZTE4MTA3OmI3OGRmOTE3NzQ3M2ZlYjEwMGZlMWY1ZGFkNTBiNGE1NmQ4ODI3ZWM=|11=d16d7615-906a-43d3-af4f-e321e4f94073|38=1|40=2|44=2.1|54=1|55=XBTCNY|59=1|60=20151105-07:22:24.111|10=223|
8=FIX.4.4|9=339|35=D|34=4|43=Y|49=CLIENT255|52=20151105-07:22:27.545|56=BTCC-PRO-EXCHANGE-SERVER|122=20151105-07:22:27.116|1=1446708136650000:Basic NjQ0NmZhODMtODAzZS00MmYwLTk4NmItZGZiMjczZTE4MTA3OmI3OGRmOTE3NzQ3M2ZlYjEwMGZlMWY1ZGFkNTBiNGE1NmQ4ODI3ZWM=|11=2d36d312-8393-4ca7-b0b7-8c966924f76f|38=1|40=2|44=3.1|54=1|55=XBTCNY|59=1|60=20151105-07:22:27.116|10=210|
8=FIX.4.4|9=85|35=2|34=9|49=BTCC-PRO-EXCHANGE-SERVER|52=20151105-07:22:28.953|56=CLIENT255|7=3|16=0|10=110|
8=FIX.4.4|9=339|35=D|34=3|43=Y|49=CLIENT255|52=20151105-07:22:27.991|56=BTCC-PRO-EXCHANGE-SERVER|122=20151105-07:22:24.111|1=1446708136650000:Basic NjQ0NmZhODMtODAzZS00MmYwLTk4NmItZGZiMjczZTE4MTA3OmI3OGRmOTE3NzQ3M2ZlYjEwMGZlMWY1ZGFkNTBiNGE1NmQ4ODI3ZWM=|11=d16d7615-906a-43d3-af4f-e321e4f94073|38=1|40=2|44=2.1|54=1|55=XBTCNY|59=1|60=20151105-07:22:24.111|10=229|
8=FIX.4.4|9=339|35=D|34=4|43=Y|49=CLIENT255|52=20151105-07:22:27.992|56=BTCC-PRO-EXCHANGE-SERVER|122=20151105-07:22:27.116|1=1446708136650000:Basic NjQ0NmZhODMtODAzZS00MmYwLTk4NmItZGZiMjczZTE4MTA3OmI3OGRmOTE3NzQ3M2ZlYjEwMGZlMWY1ZGFkNTBiNGE1NmQ4ODI3ZWM=|11=2d36d312-8393-4ca7-b0b7-8c966924f76f|38=1|40=2|44=3.1|54=1|55=XBTCNY|59=1|60=20151105-07:22:27.116|10=216|
8=FIX.4.4|9=86|35=2|34=10|49=BTCC-PRO-EXCHANGE-SERVER|52=20151105-07:22:29.190|56=CLIENT255|7=3|16=0|10=145|
8=FIX.4.4|9=339|35=D|34=3|43=Y|49=CLIENT255|52=20151105-07:22:28.200|56=BTCC-PRO-EXCHANGE-SERVER|122=20151105-07:22:24.111|1=1446708136650000:Basic NjQ0NmZhODMtODAzZS00MmYwLTk4NmItZGZiMjczZTE4MTA3OmI3OGRmOTE3NzQ3M2ZlYjEwMGZlMWY1ZGFkNTBiNGE1NmQ4ODI3ZWM=|11=d16d7615-906a-43d3-af4f-e321e4f94073|38=1|40=2|44=2.1|54=1|55=XBTCNY|59=1|60=20151105-07:22:24.111|10=213|
8=FIX.4.4|9=339|35=D|34=4|43=Y|49=CLIENT255|52=20151105-07:22:28.201|56=BTCC-PRO-EXCHANGE-SERVER|122=20151105-07:22:27.116|1=1446708136650000:Basic NjQ0NmZhODMtODAzZS00MmYwLTk4NmItZGZiMjczZTE4MTA3OmI3OGRmOTE3NzQ3M2ZlYjEwMGZlMWY1ZGFkNTBiNGE1NmQ4ODI3ZWM=|11=2d36d312-8393-4ca7-b0b7-8c966924f76f|38=1|40=2|44=3.1|54=1|55=XBTCNY|59=1|60=20151105-07:22:27.116|10=200|
8=FIX.4.4|9=86|35=2|34=11|49=BTCC-PRO-EXCHANGE-SERVER|52=20151105-07:22:29.815|56=CLIENT255|7=3|16=0|10=150|
8=FIX.4.4|9=339|35=D|34=3|43=Y|49=CLIENT255|52=20151105-07:22:28.855|56=BTCC-PRO-EXCHANGE-SERVER|122=20151105-07:22:24.111|1=1446708136650000:Basic NjQ0NmZhODMtODAzZS00MmYwLTk4NmItZGZiMjczZTE4MTA3OmI3OGRmOTE3NzQ3M2ZlYjEwMGZlMWY1ZGFkNTBiNGE1NmQ4ODI3ZWM=|11=d16d7615-906a-43d3-af4f-e321e4f94073|38=1|40=2|44=2.1|54=1|55=XBTCNY|59=1|60=20151105-07:22:24.111|10=229|
8=FIX.4.4|9=339|35=D|34=4|43=Y|49=CLIENT255|52=20151105-07:22:28.857|56=BTCC-PRO-EXCHANGE-SERVER|122=20151105-07:22:27.116|1=1446708136650000:Basic NjQ0NmZhODMtODAzZS00MmYwLTk4NmItZGZiMjczZTE4MTA3OmI3OGRmOTE3NzQ3M2ZlYjEwMGZlMWY1ZGFkNTBiNGE1NmQ4ODI3ZWM=|11=2d36d312-8393-4ca7-b0b7-8c966924f76f|38=1|40=2|44=3.1|54=1|55=XBTCNY|59=1|60=20151105-07:22:27.116|10=217|
8=FIX.4.4|9=86|35=2|34=12|49=BTCC-PRO-EXCHANGE-SERVER|52=20151105-07:22:29.946|56=CLIENT255|7=3|16=0|10=156|
8=FIX.4.4|9=339|35=D|34=3|43=Y|49=CLIENT255|52=20151105-07:22:28.978|56=BTCC-PRO-EXCHANGE-SERVER|122=20151105-07:22:24.111|1=1446708136650000:Basic NjQ0NmZhODMtODAzZS00MmYwLTk4NmItZGZiMjczZTE4MTA3OmI3OGRmOTE3NzQ3M2ZlYjEwMGZlMWY1ZGFkNTBiNGE1NmQ4ODI3ZWM=|11=d16d7615-906a-43d3-af4f-e321e4f94073|38=1|40=2|44=2.1|54=1|55=XBTCNY|59=1|60=20151105-07:22:24.111|10=235|
8=FIX.4.4|9=339|35=D|34=4|43=Y|49=CLIENT255|52=20151105-07:22:28.980|56=BTCC-PRO-EXCHANGE-SERVER|122=20151105-07:22:27.116|1=1446708136650000:Basic NjQ0NmZhODMtODAzZS00MmYwLTk4NmItZGZiMjczZTE4MTA3OmI3OGRmOTE3NzQ3M2ZlYjEwMGZlMWY1ZGFkNTBiNGE1NmQ4ODI3ZWM=|11=2d36d312-8393-4ca7-b0b7-8c966924f76f|38=1|40=2|44=3.1|54=1|55=XBTCNY|59=1|60=20151105-07:22:27.116|10=214|
8=FIX.4.4|9=86|35=2|34=13|49=BTCC-PRO-EXCHANGE-SERVER|52=20151105-07:22:30.122|56=CLIENT255|7=3|16=0|10=135|
8=FIX.4.4|9=339|35=D|34=3|43=Y|49=CLIENT255|52=20151105-07:22:29.131|56=BTCC-PRO-EXCHANGE-SERVER|122=20151105-07:22:24.111|1=1446708136650000:Basic NjQ0NmZhODMtODAzZS00MmYwLTk4NmItZGZiMjczZTE4MTA3OmI3OGRmOTE3NzQ3M2ZlYjEwMGZlMWY1ZGFkNTBiNGE1NmQ4ODI3ZWM=|11=d16d7615-906a-43d3-af4f-e321e4f94073|38=1|40=2|44=2.1|54=1|55=XBTCNY|59=1|60=20151105-07:22:24.111|10=217|
8=FIX.4.4|9=339|35=D|34=4|43=Y|49=CLIENT255|52=20151105-07:22:29.132|56=BTCC-PRO-EXCHANGE-SERVER|122=20151105-07:22:27.116|1=1446708136650000:Basic NjQ0NmZhODMtODAzZS00MmYwLTk4NmItZGZiMjczZTE4MTA3OmI3OGRmOTE3NzQ3M2ZlYjEwMGZlMWY1ZGFkNTBiNGE1NmQ4ODI3ZWM=|11=2d36d312-8393-4ca7-b0b7-8c966924f76f|38=1|40=2|44=3.1|54=1|55=XBTCNY|59=1|60=20151105-07:22:27.116|10=204|
8=FIX.4.4|9=86|35=2|34=14|49=BTCC-PRO-EXCHANGE-SERVER|52=20151105-07:22:30.208|56=CLIENT255|7=3|16=0|10=141|
8=FIX.4.4|9=339|35=D|34=3|43=Y|49=CLIENT255|52=20151105-07:22:29.221|56=BTCC-PRO-EXCHANGE-SERVER|122=20151105-07:22:24.111|1=1446708136650000:Basic NjQ0NmZhODMtODAzZS00MmYwLTk4NmItZGZiMjczZTE4MTA3OmI3OGRmOTE3NzQ3M2ZlYjEwMGZlMWY1ZGFkNTBiNGE1NmQ4ODI3ZWM=|11=d16d7615-906a-43d3-af4f-e321e4f94073|38=1|40=2|44=2.1|54=1|55=XBTCNY|59=1|60=20151105-07:22:24.111|10=217|
8=FIX.4.4|9=339|35=D|34=4|43=Y|49=CLIENT255|52=20151105-07:22:29.222|56=BTCC-PRO-EXCHANGE-SERVER|122=20151105-07:22:27.116|1=1446708136650000:Basic NjQ0NmZhODMtODAzZS00MmYwLTk4NmItZGZiMjczZTE4MTA3OmI3OGRmOTE3NzQ3M2ZlYjEwMGZlMWY1ZGFkNTBiNGE1NmQ4ODI3ZWM=|11=2d36d312-8393-4ca7-b0b7-8c966924f76f|38=1|40=2|44=3.1|54=1|55=XBTCNY|59=1|60=20151105-07:22:27.116|10=204|
8=FIX.4.4|9=86|35=2|34=15|49=BTCC-PRO-EXCHANGE-SERVER|52=20151105-07:22:30.302|56=CLIENT255|7=3|16=0|10=137|
8=FIX.4.4|9=339|35=D|34=3|43=Y|49=CLIENT255|52=20151105-07:22:29.311|56=BTCC-PRO-EXCHANGE-SERVER|122=20151105-07:22:24.111|1=1446708136650000:Basic NjQ0NmZhODMtODAzZS00MmYwLTk4NmItZGZiMjczZTE4MTA3OmI3OGRmOTE3NzQ3M2ZlYjEwMGZlMWY1ZGFkNTBiNGE1NmQ4ODI3ZWM=|11=d16d7615-906a-43d3-af4f-e321e4f94073|38=1|40=2|44=2.1|54=1|55=XBTCNY|59=1|60=20151105-07:22:24.111|10=217|
8=FIX.4.4|9=339|35=D|34=4|43=Y|49=CLIENT255|52=20151105-07:22:29.312|56=BTCC-PRO-EXCHANGE-SERVER|122=20151105-07:22:27.116|1=1446708136650000:Basic NjQ0NmZhODMtODAzZS00MmYwLTk4NmItZGZiMjczZTE4MTA3OmI3OGRmOTE3NzQ3M2ZlYjEwMGZlMWY1ZGFkNTBiNGE1NmQ4ODI3ZWM=|11=2d36d312-8393-4ca7-b0b7-8c966924f76f|38=1|40=2|44=3.1|54=1|55=XBTCNY|59=1|60=20151105-07:22:27.116|10=204|
8=FIX.4.4|9=86|35=2|34=16|49=BTCC-PRO-EXCHANGE-SERVER|52=20151105-07:22:30.389|56=CLIENT255|7=3|16=0|10=153|
8=FIX.4.4|9=339|35=D|34=3|43=Y|49=CLIENT255|52=20151105-07:22:29.405|56=BTCC-PRO-EXCHANGE-SERVER|122=20151105-07:22:24.111|1=1446708136650000:Basic NjQ0NmZhODMtODAzZS00MmYwLTk4NmItZGZiMjczZTE4MTA3OmI3OGRmOTE3NzQ3M2ZlYjEwMGZlMWY1ZGFkNTBiNGE1NmQ4ODI3ZWM=|11=d16d7615-906a-43d3-af4f-e321e4f94073|38=1|40=2|44=2.1|54=1|55=XBTCNY|59=1|60=20151105-07:22:24.111|10=221|
8=FIX.4.4|9=339|35=D|34=4|43=Y|49=CLIENT255|52=20151105-07:22:29.407|56=BTCC-PRO-EXCHANGE-SERVER|122=20151105-07:22:27.116|1=1446708136650000:Basic NjQ0NmZhODMtODAzZS00MmYwLTk4NmItZGZiMjczZTE4MTA3OmI3OGRmOTE3NzQ3M2ZlYjEwMGZlMWY1ZGFkNTBiNGE1NmQ4ODI3ZWM=|11=2d36d312-8393-4ca7-b0b7-8c966924f76f|38=1|40=2|44=3.1|54=1|55=XBTCNY|59=1|60=20151105-07:22:27.116|10=209|
8=FIX.4.4|9=86|35=2|34=17|49=BTCC-PRO-EXCHANGE-SERVER|52=20151105-07:22:30.497|56=CLIENT255|7=3|16=0|10=154|
8=FIX.4.4|9=339|35=D|34=3|43=Y|49=CLIENT255|52=20151105-07:22:29.507|56=BTCC-PRO-EXCHANGE-SERVER|122=20151105-07:22:24.111|1=1446708136650000:Basic NjQ0NmZhODMtODAzZS00MmYwLTk4NmItZGZiMjczZTE4MTA3OmI3OGRmOTE3NzQ3M2ZlYjEwMGZlMWY1ZGFkNTBiNGE1NmQ4ODI3ZWM=|11=d16d7615-906a-43d3-af4f-e321e4f94073|38=1|40=2|44=2.1|54=1|55=XBTCNY|59=1|60=20151105-07:22:24.111|10=224|
8=FIX.4.4|9=339|35=D|34=4|43=Y|49=CLIENT255|52=20151105-07:22:29.508|56=BTCC-PRO-EXCHANGE-SERVER|122=20151105-07:22:27.116|1=1446708136650000:Basic NjQ0NmZhODMtODAzZS00MmYwLTk4NmItZGZiMjczZTE4MTA3OmI3OGRmOTE3NzQ3M2ZlYjEwMGZlMWY1ZGFkNTBiNGE1NmQ4ODI3ZWM=|11=2d36d312-8393-4ca7-b0b7-8c966924f76f|38=1|40=2|44=3.1|54=1|55=XBTCNY|59=1|60=20151105-07:22:27.116|10=211|
8=FIX.4.4|9=86|35=2|34=18|49=BTCC-PRO-EXCHANGE-SERVER|52=20151105-07:22:30.587|56=CLIENT255|7=3|16=0|10=155|
8=FIX.4.4|9=339|35=D|34=3|43=Y|49=CLIENT255|52=20151105-07:22:29.597|56=BTCC-PRO-EXCHANGE-SERVER|122=20151105-07:22:24.111|1=1446708136650000:Basic NjQ0NmZhODMtODAzZS00MmYwLTk4NmItZGZiMjczZTE4MTA3OmI3OGRmOTE3NzQ3M2ZlYjEwMGZlMWY1ZGFkNTBiNGE1NmQ4ODI3ZWM=|11=d16d7615-906a-43d3-af4f-e321e4f94073|38=1|40=2|44=2.1|54=1|55=XBTCNY|59=1|60=20151105-07:22:24.111|10=233|
8=FIX.4.4|9=339|35=D|34=4|43=Y|49=CLIENT255|52=20151105-07:22:29.598|56=BTCC-PRO-EXCHANGE-SERVER|122=20151105-07:22:27.116|1=1446708136650000:Basic NjQ0NmZhODMtODAzZS00MmYwLTk4NmItZGZiMjczZTE4MTA3OmI3OGRmOTE3NzQ3M2ZlYjEwMGZlMWY1ZGFkNTBiNGE1NmQ4ODI3ZWM=|11=2d36d312-8393-4ca7-b0b7-8c966924f76f|38=1|40=2|44=3.1|54=1|55=XBTCNY|59=1|60=20151105-07:22:27.116|10=220|
8=FIX.4.4|9=86|35=2|34=19|49=BTCC-PRO-EXCHANGE-SERVER|52=20151105-07:22:30.678|56=CLIENT255|7=3|16=0|10=157|
8=FIX.4.4|9=339|35=D|34=3|43=Y|49=CLIENT255|52=20151105-07:22:29.688|56=BTCC-PRO-EXCHANGE-SERVER|122=20151105-07:22:24.111|1=1446708136650000:Basic NjQ0NmZhODMtODAzZS00MmYwLTk4NmItZGZiMjczZTE4MTA3OmI3OGRmOTE3NzQ3M2ZlYjEwMGZlMWY1ZGFkNTBiNGE1NmQ4ODI3ZWM=|11=d16d7615-906a-43d3-af4f-e321e4f94073|38=1|40=2|44=2.1|54=1|55=XBTCNY|59=1|60=20151105-07:22:24.111|10=234|
8=FIX.4.4|9=339|35=D|34=4|43=Y|49=CLIENT255|52=20151105-07:22:29.689|56=BTCC-PRO-EXCHANGE-SERVER|122=20151105-07:22:27.116|1=1446708136650000:Basic NjQ0NmZhODMtODAzZS00MmYwLTk4NmItZGZiMjczZTE4MTA3OmI3OGRmOTE3NzQ3M2ZlYjEwMGZlMWY1ZGFkNTBiNGE1NmQ4ODI3ZWM=|11=2d36d312-8393-4ca7-b0b7-8c966924f76f|38=1|40=2|44=3.1|54=1|55=XBTCNY|59=1|60=20151105-07:22:27.116|10=221|
8=FIX.4.4|9=86|35=2|34=20|49=BTCC-PRO-EXCHANGE-SERVER|52=20151105-07:22:30.774|56=CLIENT255|7=3|16=0|10=146|
8=FIX.4.4|9=339|35=D|34=3|43=Y|49=CLIENT255|52=20151105-07:22:29.784|56=BTCC-PRO-EXCHANGE-SERVER|122=20151105-07:22:24.111|1=1446708136650000:Basic NjQ0NmZhODMtODAzZS00MmYwLTk4NmItZGZiMjczZTE4MTA3OmI3OGRmOTE3NzQ3M2ZlYjEwMGZlMWY1ZGFkNTBiNGE1NmQ4ODI3ZWM=|11=d16d7615-906a-43d3-af4f-e321e4f94073|38=1|40=2|44=2.1|54=1|55=XBTCNY|59=1|60=20151105-07:22:24.111|10=231|
8=FIX.4.4|9=339|35=D|34=4|43=Y|49=CLIENT255|52=20151105-07:22:29.785|56=BTCC-PRO-EXCHANGE-SERVER|122=20151105-07:22:27.116|1=1446708136650000:Basic NjQ0NmZhODMtODAzZS00MmYwLTk4NmItZGZiMjczZTE4MTA3OmI3OGRmOTE3NzQ3M2ZlYjEwMGZlMWY1ZGFkNTBiNGE1NmQ4ODI3ZWM=|11=2d36d312-8393-4ca7-b0b7-8c966924f76f|38=1|40=2|44=3.1|54=1|55=XBTCNY|59=1|60=20151105-07:22:27.116|10=218|
8=FIX.4.4|9=86|35=2|34=21|49=BTCC-PRO-EXCHANGE-SERVER|52=20151105-07:22:30.863|56=CLIENT255|7=3|16=0|10=146|
8=FIX.4.4|9=339|35=D|34=3|43=Y|49=CLIENT255|52=20151105-07:22:29.873|56=BTCC-PRO-EXCHANGE-SERVER|122=20151105-07:22:24.111|1=1446708136650000:Basic NjQ0NmZhODMtODAzZS00MmYwLTk4NmItZGZiMjczZTE4MTA3OmI3OGRmOTE3NzQ3M2ZlYjEwMGZlMWY1ZGFkNTBiNGE1NmQ4ODI3ZWM=|11=d16d7615-906a-43d3-af4f-e321e4f94073|38=1|40=2|44=2.1|54=1|55=XBTCNY|59=1|60=20151105-07:22:24.111|10=230|
8=FIX.4.4|9=339|35=D|34=4|43=Y|49=CLIENT255|52=20151105-07:22:29.873|56=BTCC-PRO-EXCHANGE-SERVER|122=20151105-07:22:27.116|1=1446708136650000:Basic NjQ0NmZhODMtODAzZS00MmYwLTk4NmItZGZiMjczZTE4MTA3OmI3OGRmOTE3NzQ3M2ZlYjEwMGZlMWY1ZGFkNTBiNGE1NmQ4ODI3ZWM=|11=2d36d312-8393-4ca7-b0b7-8c966924f76f|38=1|40=2|44=3.1|54=1|55=XBTCNY|59=1|60=20151105-07:22:27.116|10=216|
8=FIX.4.4|9=95|35=A|34=1|49=CLIENT255|52=20151105-07:23:59.832|56=BTCC-PRO-EXCHANGE-SERVER|98=0|108=300|141=Y|10=112|
8=FIX.4.4|9=95|35=A|34=1|49=BTCC-PRO-EXCHANGE-SERVER|52=20151105-07:24:00.873|56=CLIENT255|98=0|108=300|141=Y|10=104|
8=FIX.4.4|9=95|35=A|34=1|49=CLIENT255|52=20151105-07:24:53.743|56=BTCC-PRO-EXCHANGE-SERVER|98=0|108=300|141=Y|10=108|
8=FIX.4.4|9=95|35=A|34=1|49=BTCC-PRO-EXCHANGE-SERVER|52=20151105-07:24:54.772|56=CLIENT255|98=0|108=300|141=Y|10=111|
8=FIX.4.4|9=308|35=D|34=2|49=CLIENT255|52=20151105-07:24:55.769|56=BTCC-PRO-EXCHANGE-SERVER|1=1446708291512000:Basic NjQ0NmZhODMtODAzZS00MmYwLTk4NmItZGZiMjczZTE4MTA3OmNjMWRhYmZjNjVhNjc2YWNjOGQyZDU5MzVlYmRlYzg3OGEzZjYxM2M=|11=1bc85aa2-0d11-45a7-8cb6-5be0d2c9f125|38=1|40=2|44=1.1|54=1|55=XBTCNY|59=1|60=20151105-07:24:55.768|10=140|
8=FIX.4.4|9=290|35=8|34=2|49=BTCC-PRO-EXCHANGE-SERVER|52=20151105-07:24:56.925|56=CLIENT255|6=0|11=1bc85aa2-0d11-45a7-8cb6-5be0d2c9f125|14=0|17=8f9c85f4-e517-4089-9ef0-a818586f2903|31=0|32=0|37=62cdb6d70cf44858843ea27beebe73da|38=1|39=A|40=2|44=1.1|54=1|55=XBTCNY|59=1|60=20151105-07:25:07.836|150=A|151=1|10=227|
8=FIX.4.4|9=290|35=8|34=3|49=BTCC-PRO-EXCHANGE-SERVER|52=20151105-07:24:56.926|56=CLIENT255|6=0|11=1bc85aa2-0d11-45a7-8cb6-5be0d2c9f125|14=0|17=c6e39cef-9b5d-4ba8-8524-f77ec65277fc|31=0|32=0|37=62cdb6d70cf44858843ea27beebe73da|38=1|39=0|40=2|44=1.1|54=1|55=XBTCNY|59=1|60=20151105-07:25:07.836|150=0|151=1|10=220|
8=FIX.4.4|9=308|35=D|34=3|49=CLIENT255|52=20151105-07:25:00.773|56=BTCC-PRO-EXCHANGE-SERVER|1=1446708291512000:Basic NjQ0NmZhODMtODAzZS00MmYwLTk4NmItZGZiMjczZTE4MTA3OmNjMWRhYmZjNjVhNjc2YWNjOGQyZDU5MzVlYmRlYzg3OGEzZjYxM2M=|11=a334c015-25e8-4208-8f1a-03850cc431a2|38=1|40=2|44=2.1|54=1|55=XBTCNY|59=1|60=20151105-07:25:00.773|10=125|
8=FIX.4.4|9=308|35=D|34=4|49=CLIENT255|52=20151105-07:25:05.780|56=BTCC-PRO-EXCHANGE-SERVER|1=1446708291512000:Basic NjQ0NmZhODMtODAzZS00MmYwLTk4NmItZGZiMjczZTE4MTA3OmNjMWRhYmZjNjVhNjc2YWNjOGQyZDU5MzVlYmRlYzg3OGEzZjYxM2M=|11=7683cc3b-ed8c-4ba3-b5b5-1c092a1b7d27|38=1|40=2|44=3.1|54=1|55=XBTCNY|59=1|60=20151105-07:25:05.779|10=188|
8=FIX.4.4|9=85|35=2|34=4|49=BTCC-PRO-EXCHANGE-SERVER|52=20151105-07:25:07.115|56=CLIENT255|7=3|16=0|10=095|
8=FIX.4.4|9=339|35=D|34=3|43=Y|49=CLIENT255|52=20151105-07:25:06.154|56=BTCC-PRO-EXCHANGE-SERVER|122=20151105-07:25:00.773|1=1446708291512000:Basic NjQ0NmZhODMtODAzZS00MmYwLTk4NmItZGZiMjczZTE4MTA3OmNjMWRhYmZjNjVhNjc2YWNjOGQyZDU5MzVlYmRlYzg3OGEzZjYxM2M=|11=a334c015-25e8-4208-8f1a-03850cc431a2|38=1|40=2|44=2.1|54=1|55=XBTCNY|59=1|60=20151105-07:25:00.773|10=126|
8=FIX.4.4|9=339|35=D|34=4|43=Y|49=CLIENT255|52=20151105-07:25:06.155|56=BTCC-PRO-EXCHANGE-SERVER|122=20151105-07:25:05.780|1=1446708291512000:Basic NjQ0NmZhODMtODAzZS00MmYwLTk4NmItZGZiMjczZTE4MTA3OmNjMWRhYmZjNjVhNjc2YWNjOGQyZDU5MzVlYmRlYzg3OGEzZjYxM2M=|11=7683cc3b-ed8c-4ba3-b5b5-1c092a1b7d27|38=1|40=2|44=3.1|54=1|55=XBTCNY|59=1|60=20151105-07:25:05.779|10=190|
8=FIX.4.4|9=85|35=2|34=5|49=BTCC-PRO-EXCHANGE-SERVER|52=20151105-07:25:07.235|56=CLIENT255|7=3|16=0|10=099|
8=FIX.4.4|9=339|35=D|34=3|43=Y|49=CLIENT255|52=20151105-07:25:06.260|56=BTCC-PRO-EXCHANGE-SERVER|122=20151105-07:25:00.773|1=1446708291512000:Basic NjQ0NmZhODMtODAzZS00MmYwLTk4NmItZGZiMjczZTE4MTA3OmNjMWRhYmZjNjVhNjc2YWNjOGQyZDU5MzVlYmRlYzg3OGEzZjYxM2M=|11=a334c015-25e8-4208-8f1a-03850cc431a2|38=1|40=2|44=2.1|54=1|55=XBTCNY|59=1|60=20151105-07:25:00.773|10=124|
8=FIX.4.4|9=339|35=D|34=4|43=Y|49=CLIENT255|52=20151105-07:25:06.262|56=BTCC-PRO-EXCHANGE-SERVER|122=20151105-07:25:05.780|1=1446708291512000:Basic NjQ0NmZhODMtODAzZS00MmYwLTk4NmItZGZiMjczZTE4MTA3OmNjMWRhYmZjNjVhNjc2YWNjOGQyZDU5MzVlYmRlYzg3OGEzZjYxM2M=|11=7683cc3b-ed8c-4ba3-b5b5-1c092a1b7d27|38=1|40=2|44=3.1|54=1|55=XBTCNY|59=1|60=20151105-07:25:05.779|10=189|
8=FIX.4.4|9=85|35=2|34=6|49=BTCC-PRO-EXCHANGE-SERVER|52=20151105-07:25:07.341|56=CLIENT255|7=3|16=0|10=098|
8=FIX.4.4|9=339|35=D|34=3|43=Y|49=CLIENT255|52=20151105-07:25:06.352|56=BTCC-PRO-EXCHANGE-SERVER|122=20151105-07:25:00.773|1=1446708291512000:Basic NjQ0NmZhODMtODAzZS00MmYwLTk4NmItZGZiMjczZTE4MTA3OmNjMWRhYmZjNjVhNjc2YWNjOGQyZDU5MzVlYmRlYzg3OGEzZjYxM2M=|11=a334c015-25e8-4208-8f1a-03850cc431a2|38=1|40=2|44=2.1|54=1|55=XBTCNY|59=1|60=20151105-07:25:00.773|10=126|
8=FIX.4.4|9=339|35=D|34=4|43=Y|49=CLIENT255|52=20151105-07:25:06.353|56=BTCC-PRO-EXCHANGE-SERVER|122=20151105-07:25:05.780|1=1446708291512000:Basic NjQ0NmZhODMtODAzZS00MmYwLTk4NmItZGZiMjczZTE4MTA3OmNjMWRhYmZjNjVhNjc2YWNjOGQyZDU5MzVlYmRlYzg3OGEzZjYxM2M=|11=7683cc3b-ed8c-4ba3-b5b5-1c092a1b7d27|38=1|40=2|44=3.1|54=1|55=XBTCNY|59=1|60=20151105-07:25:05.779|10=190|
8=FIX.4.4|9=85|35=2|34=7|49=BTCC-PRO-EXCHANGE-SERVER|52=20151105-07:25:07.430|56=CLIENT255|7=3|16=0|10=098|
8=FIX.4.4|9=339|35=D|34=3|43=Y|49=CLIENT255|52=20151105-07:25:06.445|56=BTCC-PRO-EXCHANGE-SERVER|122=20151105-07:25:00.773|1=1446708291512000:Basic NjQ0NmZhODMtODAzZS00MmYwLTk4NmItZGZiMjczZTE4MTA3OmNjMWRhYmZjNjVhNjc2YWNjOGQyZDU5MzVlYmRlYzg3OGEzZjYxM2M=|11=a334c015-25e8-4208-8f1a-03850cc431a2|38=1|40=2|44=2.1|54=1|55=XBTCNY|59=1|60=20151105-07:25:00.773|10=129|
8=FIX.4.4|9=339|35=D|34=4|43=Y|49=CLIENT255|52=20151105-07:25:06.446|56=BTCC-PRO-EXCHANGE-SERVER|122=20151105-07:25:05.780|1=1446708291512000:Basic NjQ0NmZhODMtODAzZS00MmYwLTk4NmItZGZiMjczZTE4MTA3OmNjMWRhYmZjNjVhNjc2YWNjOGQyZDU5MzVlYmRlYzg3OGEzZjYxM2M=|11=7683cc3b-ed8c-4ba3-b5b5-1c092a1b7d27|38=1|40=2|44=3.1|54=1|55=XBTCNY|59=1|60=20151105-07:25:05.779|10=193|
8=FIX.4.4|9=85|35=2|34=8|49=BTCC-PRO-EXCHANGE-SERVER|52=20151105-07:25:07.538|56=CLIENT255|7=3|16=0|10=108|
8=FIX.4.4|9=339|35=D|34=3|43=Y|49=CLIENT255|52=20151105-07:25:06.548|56=BTCC-PRO-EXCHANGE-SERVER|122=20151105-07:25:00.773|1=1446708291512000:Basic NjQ0NmZhODMtODAzZS00MmYwLTk4NmItZGZiMjczZTE4MTA3OmNjMWRhYmZjNjVhNjc2YWNjOGQyZDU5MzVlYmRlYzg3OGEzZjYxM2M=|11=a334c015-25e8-4208-8f1a-03850cc431a2|38=1|40=2|44=2.1|54=1|55=XBTCNY|59=1|60=20151105-07:25:00.773|10=133|
8=FIX.4.4|9=339|35=D|34=4|43=Y|49=CLIENT255|52=20151105-07:25:06.549|56=BTCC-PRO-EXCHANGE-SERVER|122=20151105-07:25:05.780|1=1446708291512000:Basic NjQ0NmZhODMtODAzZS00MmYwLTk4NmItZGZiMjczZTE4MTA3OmNjMWRhYmZjNjVhNjc2YWNjOGQyZDU5MzVlYmRlYzg3OGEzZjYxM2M=|11=7683cc3b-ed8c-4ba3-b5b5-1c092a1b7d27|38=1|40=2|44=3.1|54=1|55=XBTCNY|59=1|60=20151105-07:25:05.779|10=197|
8=FIX.4.4|9=85|35=2|34=9|49=BTCC-PRO-EXCHANGE-SERVER|52=20151105-07:25:07.629|56=CLIENT255|7=3|16=0|10=110|
8=FIX.4.4|9=339|35=D|34=3|43=Y|49=CLIENT255|52=20151105-07:25:06.639|56=BTCC-PRO-EXCHANGE-SERVER|122=20151105-07:25:00.773|1=1446708291512000:Basic NjQ0NmZhODMtODAzZS00MmYwLTk4NmItZGZiMjczZTE4MTA3OmNjMWRhYmZjNjVhNjc2YWNjOGQyZDU5MzVlYmRlYzg3OGEzZjYxM2M=|11=a334c015-25e8-4208-8f1a-03850cc431a2|38=1|40=2|44=2.1|54=1|55=XBTCNY|59=1|60=20151105-07:25:00.773|10=134|
8=FIX.4.4|9=339|35=D|34=4|43=Y|49=CLIENT255|52=20151105-07:25:06.640|56=BTCC-PRO-EXCHANGE-SERVER|122=20151105-07:25:05.780|1=1446708291512000:Basic NjQ0NmZhODMtODAzZS00MmYwLTk4NmItZGZiMjczZTE4MTA3OmNjMWRhYmZjNjVhNjc2YWNjOGQyZDU5MzVlYmRlYzg3OGEzZjYxM2M=|11=7683cc3b-ed8c-4ba3-b5b5-1c092a1b7d27|38=1|40=2|44=3.1|54=1|55=XBTCNY|59=1|60=20151105-07:25:05.779|10=189|
8=FIX.4.4|9=86|35=2|34=10|49=BTCC-PRO-EXCHANGE-SERVER|52=20151105-07:25:07.720|56=CLIENT255|7=3|16=0|10=143|
8=FIX.4.4|9=339|35=D|34=3|43=Y|49=CLIENT255|52=20151105-07:25:06.731|56=BTCC-PRO-EXCHANGE-SERVER|122=20151105-07:25:00.773|1=1446708291512000:Basic NjQ0NmZhODMtODAzZS00MmYwLTk4NmItZGZiMjczZTE4MTA3OmNjMWRhYmZjNjVhNjc2YWNjOGQyZDU5MzVlYmRlYzg3OGEzZjYxM2M=|11=a334c015-25e8-4208-8f1a-03850cc431a2|38=1|40=2|44=2.1|54=1|55=XBTCNY|59=1|60=20151105-07:25:00.773|10=127|
8=FIX.4.4|9=339|35=D|34=4|43=Y|49=CLIENT255|52=20151105-07:25:06.733|56=BTCC-PRO-EXCHANGE-SERVER|122=20151105-07:25:05.780|1=1446708291512000:Basic NjQ0NmZhODMtODAzZS00MmYwLTk4NmItZGZiMjczZTE4MTA3OmNjMWRhYmZjNjVhNjc2YWNjOGQyZDU5MzVlYmRlYzg3OGEzZjYxM2M=|11=7683cc3b-ed8c-4ba3-b5b5-1c092a1b7d27|38=1|40=2|44=3.1|54=1|55=XBTCNY|59=1|60=20151105-07:25:05.779|10=192|
8=FIX.4.4|9=86|35=2|34=11|49=BTCC-PRO-EXCHANGE-SERVER|52=20151105-07:25:07.815|56=CLIENT255|7=3|16=0|10=149|
8=FIX.4.4|9=339|35=D|34=3|43=Y|49=CLIENT255|52=20151105-07:25:06.825|56=BTCC-PRO-EXCHANGE-SERVER|122=20151105-07:25:00.773|1=1446708291512000:Basic NjQ0NmZhODMtODAzZS00MmYwLTk4NmItZGZiMjczZTE4MTA3OmNjMWRhYmZjNjVhNjc2YWNjOGQyZDU5MzVlYmRlYzg3OGEzZjYxM2M=|11=a334c015-25e8-4208-8f1a-03850cc431a2|38=1|40=2|44=2.1|54=1|55=XBTCNY|59=1|60=20151105-07:25:00.773|10=131|
8=FIX.4.4|9=339|35=D|34=4|43=Y|49=CLIENT255|52=20151105-07:25:06.826|56=BTCC-PRO-EXCHANGE-SERVER|122=20151105-07:25:05.780|1=1446708291512000:Basic NjQ0NmZhODMtODAzZS00MmYwLTk4NmItZGZiMjczZTE4MTA3OmNjMWRhYmZjNjVhNjc2YWNjOGQyZDU5MzVlYmRlYzg3OGEzZjYxM2M=|11=7683cc3b-ed8c-4ba3-b5b5-1c092a1b7d27|38=1|40=2|44=3.1|54=1|55=XBTCNY|59=1|60=20151105-07:25:05.779|10=195|
8=FIX.4.4|9=86|35=2|34=12|49=BTCC-PRO-EXCHANGE-SERVER|52=20151105-07:25:07.965|56=CLIENT255|7=3|16=0|10=156|
8=FIX.4.4|9=339|35=D|34=3|43=Y|49=CLIENT255|52=20151105-07:25:06.974|56=BTCC-PRO-EXCHANGE-SERVER|122=20151105-07:25:00.773|1=1446708291512000:Basic NjQ0NmZhODMtODAzZS00MmYwLTk4NmItZGZiMjczZTE4MTA3OmNjMWRhYmZjNjVhNjc2YWNjOGQyZDU5MzVlYmRlYzg3OGEzZjYxM2M=|11=a334c015-25e8-4208-8f1a-03850cc431a2|38=1|40=2|44=2.1|54=1|55=XBTCNY|59=1|60=20151105-07:25:00.773|10=136|
8=FIX.4.4|9=339|35=D|34=4|43=Y|49=CLIENT255|52=20151105-07:25:06.975|56=BTCC-PRO-EXCHANGE-SERVER|122=20151105-07:25:05.780|1=1446708291512000:Basic NjQ0NmZhODMtODAzZS00MmYwLTk4NmItZGZiMjczZTE4MTA3OmNjMWRhYmZjNjVhNjc2YWNjOGQyZDU5MzVlYmRlYzg3OGEzZjYxM2M=|11=7683cc3b-ed8c-4ba3-b5b5-1c092a1b7d27|38=1|40=2|44=3.1|54=1|55=XBTCNY|59=1|60=20151105-07:25:05.779|10=200|
8=FIX.4.4|9=86|35=2|34=13|49=BTCC-PRO-EXCHANGE-SERVER|52=20151105-07:25:08.053|56=CLIENT255|7=3|16=0|10=146|
8=FIX.4.4|9=339|35=D|34=3|43=Y|49=CLIENT255|52=20151105-07:25:07.275|56=BTCC-PRO-EXCHANGE-SERVER|122=20151105-07:25:00.773|1=1446708291512000:Basic NjQ0NmZhODMtODAzZS00MmYwLTk4NmItZGZiMjczZTE4MTA3OmNjMWRhYmZjNjVhNjc2YWNjOGQyZDU5MzVlYmRlYzg3OGEzZjYxM2M=|11=a334c015-25e8-4208-8f1a-03850cc431a2|38=1|40=2|44=2.1|54=1|55=XBTCNY|59=1|60=20151105-07:25:00.773|10=131|
8=FIX.4.4|9=339|35=D|34=4|43=Y|49=CLIENT255|52=20151105-07:25:07.276|56=BTCC-PRO-EXCHANGE-SERVER|122=20151105-07:25:05.780|1=1446708291512000:Basic NjQ0NmZhODMtODAzZS00MmYwLTk4NmItZGZiMjczZTE4MTA3OmNjMWRhYmZjNjVhNjc2YWNjOGQyZDU5MzVlYmRlYzg3OGEzZjYxM2M=|11=7683cc3b-ed8c-4ba3-b5b5-1c092a1b7d27|38=1|40=2|44=3.1|54=1|55=XBTCNY|59=1|60=20151105-07:25:05.779|10=195|
8=FIX.4.4|9=86|35=2|34=14|49=BTCC-PRO-EXCHANGE-SERVER|52=20151105-07:25:08.408|56=CLIENT255|7=3|16=0|10=151|
8=FIX.4.4|9=339|35=D|34=3|43=Y|49=CLIENT255|52=20151105-07:25:07.447|56=BTCC-PRO-EXCHANGE-SERVER|122=20151105-07:25:00.773|1=1446708291512000:Basic NjQ0NmZhODMtODAzZS00MmYwLTk4NmItZGZiMjczZTE4MTA3OmNjMWRhYmZjNjVhNjc2YWNjOGQyZDU5MzVlYmRlYzg3OGEzZjYxM2M=|11=a334c015-25e8-4208-8f1a-03850cc431a2|38=1|40=2|44=2.1|54=1|55=XBTCNY|59=1|60=20151105-07:25:00.773|10=132|
8=FIX.4.4|9=339|35=D|34=4|43=Y|49=CLIENT255|52=20151105-07:25:07.448|56=BTCC-PRO-EXCHANGE-SERVER|122=20151105-07:25:05.780|1=1446708291512000:Basic NjQ0NmZhODMtODAzZS00MmYwLTk4NmItZGZiMjczZTE4MTA3OmNjMWRhYmZjNjVhNjc2YWNjOGQyZDU5MzVlYmRlYzg3OGEzZjYxM2M=|11=7683cc3b-ed8c-4ba3-b5b5-1c092a1b7d27|38=1|40=2|44=3.1|54=1|55=XBTCNY|59=1|60=20151105-07:25:05.779|10=196|
8=FIX.4.4|9=86|35=2|34=15|49=BTCC-PRO-EXCHANGE-SERVER|52=20151105-07:25:08.833|56=CLIENT255|7=3|16=0|10=154|
8=FIX.4.4|9=339|35=D|34=3|43=Y|49=CLIENT255|52=20151105-07:25:07.845|56=BTCC-PRO-EXCHANGE-SERVER|122=20151105-07:25:00.773|1=1446708291512000:Basic NjQ0NmZhODMtODAzZS00MmYwLTk4NmItZGZiMjczZTE4MTA3OmNjMWRhYmZjNjVhNjc2YWNjOGQyZDU5MzVlYmRlYzg3OGEzZjYxM2M=|11=a334c015-25e8-4208-8f1a-03850cc431a2|38=1|40=2|44=2.1|54=1|55=XBTCNY|59=1|60=20151105-07:25:00.773|10=134|
8=FIX.4.4|9=339|35=D|34=4|43=Y|49=CLIENT255|52=20151105-07:25:07.846|56=BTCC-PRO-EXCHANGE-SERVER|122=20151105-07:25:05.780|1=1446708291512000:Basic NjQ0NmZhODMtODAzZS00MmYwLTk4NmItZGZiMjczZTE4MTA3OmNjMWRhYmZjNjVhNjc2YWNjOGQyZDU5MzVlYmRlYzg3OGEzZjYxM2M=|11=7683cc3b-ed8c-4ba3-b5b5-1c092a1b7d27|38=1|40=2|44=3.1|54=1|55=XBTCNY|59=1|60=20151105-07:25:05.779|10=198|
8=FIX.4.4|9=86|35=2|34=16|49=BTCC-PRO-EXCHANGE-SERVER|52=20151105-07:25:08.924|56=CLIENT255|7=3|16=0|10=156|
8=FIX.4.4|9=339|35=D|34=3|43=Y|49=CLIENT255|52=20151105-07:25:07.941|56=BTCC-PRO-EXCHANGE-SERVER|122=20151105-07:25:00.773|1=1446708291512000:Basic NjQ0NmZhODMtODAzZS00MmYwLTk4NmItZGZiMjczZTE4MTA3OmNjMWRhYmZjNjVhNjc2YWNjOGQyZDU5MzVlYmRlYzg3OGEzZjYxM2M=|11=a334c015-25e8-4208-8f1a-03850cc431a2|38=1|40=2|44=2.1|54=1|55=XBTCNY|59=1|60=20151105-07:25:00.773|10=131|
8=FIX.4.4|9=339|35=D|34=4|43=Y|49=CLIENT255|52=20151105-07:25:07.942|56=BTCC-PRO-EXCHANGE-SERVER|122=20151105-07:25:05.780|1=1446708291512000:Basic NjQ0NmZhODMtODAzZS00MmYwLTk4NmItZGZiMjczZTE4MTA3OmNjMWRhYmZjNjVhNjc2YWNjOGQyZDU5MzVlYmRlYzg3OGEzZjYxM2M=|11=7683cc3b-ed8c-4ba3-b5b5-1c092a1b7d27|38=1|40=2|44=3.1|54=1|55=XBTCNY|59=1|60=20151105-07:25:05.779|10=195|
8=FIX.4.4|9=86|35=2|34=17|49=BTCC-PRO-EXCHANGE-SERVER|52=20151105-07:25:09.019|56=CLIENT255|7=3|16=0|10=153|
8=FIX.4.4|9=339|35=D|34=3|43=Y|49=CLIENT255|52=20151105-07:25:08.077|56=BTCC-PRO-EXCHANGE-SERVER|122=20151105-07:25:00.773|1=1446708291512000:Basic NjQ0NmZhODMtODAzZS00MmYwLTk4NmItZGZiMjczZTE4MTA3OmNjMWRhYmZjNjVhNjc2YWNjOGQyZDU5MzVlYmRlYzg3OGEzZjYxM2M=|11=a334c015-25e8-4208-8f1a-03850cc431a2|38=1|40=2|44=2.1|54=1|55=XBTCNY|59=1|60=20151105-07:25:00.773|10=132|
8=FIX.4.4|9=339|35=D|34=4|43=Y|49=CLIENT255|52=20151105-07:25:08.078|56=BTCC-PRO-EXCHANGE-SERVER|122=20151105-07:25:05.780|1=1446708291512000:Basic NjQ0NmZhODMtODAzZS00MmYwLTk4NmItZGZiMjczZTE4MTA3OmNjMWRhYmZjNjVhNjc2YWNjOGQyZDU5MzVlYmRlYzg3OGEzZjYxM2M=|11=7683cc3b-ed8c-4ba3-b5b5-1c092a1b7d27|38=1|40=2|44=3.1|54=1|55=XBTCNY|59=1|60=20151105-07:25:05.779|10=196|
8=FIX.4.4|9=86|35=2|34=18|49=BTCC-PRO-EXCHANGE-SERVER|52=20151105-07:25:09.156|56=CLIENT255|7=3|16=0|10=156|
8=FIX.4.4|9=339|35=D|34=3|43=Y|49=CLIENT255|52=20151105-07:25:08.191|56=BTCC-PRO-EXCHANGE-SERVER|122=20151105-07:25:00.773|1=1446708291512000:Basic NjQ0NmZhODMtODAzZS00MmYwLTk4NmItZGZiMjczZTE4MTA3OmNjMWRhYmZjNjVhNjc2YWNjOGQyZDU5MzVlYmRlYzg3OGEzZjYxM2M=|11=a334c015-25e8-4208-8f1a-03850cc431a2|38=1|40=2|44=2.1|54=1|55=XBTCNY|59=1|60=20151105-07:25:00.773|10=129|
8=FIX.4.4|9=339|35=D|34=4|43=Y|49=CLIENT255|52=20151105-07:25:08.192|56=BTCC-PRO-EXCHANGE-SERVER|122=20151105-07:25:05.780|1=1446708291512000:Basic NjQ0NmZhODMtODAzZS00MmYwLTk4NmItZGZiMjczZTE4MTA3OmNjMWRhYmZjNjVhNjc2YWNjOGQyZDU5MzVlYmRlYzg3OGEzZjYxM2M=|11=7683cc3b-ed8c-4ba3-b5b5-1c092a1b7d27|38=1|40=2|44=3.1|54=1|55=XBTCNY|59=1|60=20151105-07:25:05.779|10=193|
8=FIX.4.4|9=86|35=2|34=19|49=BTCC-PRO-EXCHANGE-SERVER|52=20151105-07:25:09.270|56=CLIENT255|7=3|16=0|10=154|
8=FIX.4.4|9=339|35=D|34=3|43=Y|49=CLIENT255|52=20151105-07:25:08.326|56=BTCC-PRO-EXCHANGE-SERVER|122=20151105-07:25:00.773|1=1446708291512000:Basic NjQ0NmZhODMtODAzZS00MmYwLTk4NmItZGZiMjczZTE4MTA3OmNjMWRhYmZjNjVhNjc2YWNjOGQyZDU5MzVlYmRlYzg3OGEzZjYxM2M=|11=a334c015-25e8-4208-8f1a-03850cc431a2|38=1|40=2|44=2.1|54=1|55=XBTCNY|59=1|60=20151105-07:25:00.773|10=129|
8=FIX.4.4|9=339|35=D|34=4|43=Y|49=CLIENT255|52=20151105-07:25:08.327|56=BTCC-PRO-EXCHANGE-SERVER|122=20151105-07:25:05.780|1=1446708291512000:Basic NjQ0NmZhODMtODAzZS00MmYwLTk4NmItZGZiMjczZTE4MTA3OmNjMWRhYmZjNjVhNjc2YWNjOGQyZDU5MzVlYmRlYzg3OGEzZjYxM2M=|11=7683cc3b-ed8c-4ba3-b5b5-1c092a1b7d27|38=1|40=2|44=3.1|54=1|55=XBTCNY|59=1|60=20151105-07:25:05.779|10=193|
8=FIX.4.4|9=86|35=2|34=20|49=BTCC-PRO-EXCHANGE-SERVER|52=20151105-07:25:09.403|56=CLIENT255|7=3|16=0|10=144|
8=FIX.4.4|9=339|35=D|34=3|43=Y|49=CLIENT255|52=20151105-07:25:08.418|56=BTCC-PRO-EXCHANGE-SERVER|122=20151105-07:25:00.773|1=1446708291512000:Basic NjQ0NmZhODMtODAzZS00MmYwLTk4NmItZGZiMjczZTE4MTA3OmNjMWRhYmZjNjVhNjc2YWNjOGQyZDU5MzVlYmRlYzg3OGEzZjYxM2M=|11=a334c015-25e8-4208-8f1a-03850cc431a2|38=1|40=2|44=2.1|54=1|55=XBTCNY|59=1|60=20151105-07:25:00.773|10=131|
8=FIX.4.4|9=339|35=D|34=4|43=Y|49=CLIENT255|52=20151105-07:25:08.419|56=BTCC-PRO-EXCHANGE-SERVER|122=20151105-07:25:05.780|1=1446708291512000:Basic NjQ0NmZhODMtODAzZS00MmYwLTk4NmItZGZiMjczZTE4MTA3OmNjMWRhYmZjNjVhNjc2YWNjOGQyZDU5MzVlYmRlYzg3OGEzZjYxM2M=|11=7683cc3b-ed8c-4ba3-b5b5-1c092a1b7d27|38=1|40=2|44=3.1|54=1|55=XBTCNY|59=1|60=20151105-07:25:05.779|10=195|
8=FIX.4.4|9=86|35=2|34=21|49=BTCC-PRO-EXCHANGE-SERVER|52=20151105-07:25:09.495|56=CLIENT255|7=3|16=0|10=156|
8=FIX.4.4|9=339|35=D|34=3|43=Y|49=CLIENT255|52=20151105-07:25:08.508|56=BTCC-PRO-EXCHANGE-SERVER|122=20151105-07:25:00.773|1=1446708291512000:Basic NjQ0NmZhODMtODAzZS00MmYwLTk4NmItZGZiMjczZTE4MTA3OmNjMWRhYmZjNjVhNjc2YWNjOGQyZDU5MzVlYmRlYzg3OGEzZjYxM2M=|11=a334c015-25e8-4208-8f1a-03850cc431a2|38=1|40=2|44=2.1|54=1|55=XBTCNY|59=1|60=20151105-07:25:00.773|10=131|
8=FIX.4.4|9=339|35=D|34=4|43=Y|49=CLIENT255|52=20151105-07:25:08.509|56=BTCC-PRO-EXCHANGE-SERVER|122=20151105-07:25:05.780|1=1446708291512000:Basic NjQ0NmZhODMtODAzZS00MmYwLTk4NmItZGZiMjczZTE4MTA3OmNjMWRhYmZjNjVhNjc2YWNjOGQyZDU5MzVlYmRlYzg3OGEzZjYxM2M=|11=7683cc3b-ed8c-4ba3-b5b5-1c092a1b7d27|38=1|40=2|44=3.1|54=1|55=XBTCNY|59=1|60=20151105-07:25:05.779|10=195|
8=FIX.4.4|9=86|35=2|34=22|49=BTCC-PRO-EXCHANGE-SERVER|52=20151105-07:25:09.965|56=CLIENT255|7=3|16=0|10=159|
8=FIX.4.4|9=339|35=D|34=3|43=Y|49=CLIENT255|52=20151105-07:25:09.152|56=BTCC-PRO-EXCHANGE-SERVER|122=20151105-07:25:00.773|1=1446708291512000:Basic NjQ0NmZhODMtODAzZS00MmYwLTk4NmItZGZiMjczZTE4MTA3OmNjMWRhYmZjNjVhNjc2YWNjOGQyZDU5MzVlYmRlYzg3OGEzZjYxM2M=|11=a334c015-25e8-4208-8f1a-03850cc431a2|38=1|40=2|44=2.1|54=1|55=XBTCNY|59=1|60=20151105-07:25:00.773|10=127|
8=FIX.4.4|9=339|35=D|34=4|43=Y|49=CLIENT255|52=20151105-07:25:09.153|56=BTCC-PRO-EXCHANGE-SERVER|122=20151105-07:25:05.780|1=1446708291512000:Basic NjQ0NmZhODMtODAzZS00MmYwLTk4NmItZGZiMjczZTE4MTA3OmNjMWRhYmZjNjVhNjc2YWNjOGQyZDU5MzVlYmRlYzg3OGEzZjYxM2M=|11=7683cc3b-ed8c-4ba3-b5b5-1c092a1b7d27|38=1|40=2|44=3.1|54=1|55=XBTCNY|59=1|60=20151105-07:25:05.779|10=191|
8=FIX.4.4|9=86|35=2|34=23|49=BTCC-PRO-EXCHANGE-SERVER|52=20151105-07:25:10.236|56=CLIENT255|7=3|16=0|10=143|
8=FIX.4.4|9=339|35=D|34=3|43=Y|49=CLIENT255|52=20151105-07:25:09.272|56=BTCC-PRO-EXCHANGE-SERVER|122=20151105-07:25:00.773|1=1446708291512000:Basic NjQ0NmZhODMtODAzZS00MmYwLTk4NmItZGZiMjczZTE4MTA3OmNjMWRhYmZjNjVhNjc2YWNjOGQyZDU5MzVlYmRlYzg3OGEzZjYxM2M=|11=a334c015-25e8-4208-8f1a-03850cc431a2|38=1|40=2|44=2.1|54=1|55=XBTCNY|59=1|60=20151105-07:25:00.773|10=130|
8=FIX.4.4|9=339|35=D|34=4|43=Y|49=CLIENT255|52=20151105-07:25:09.273|56=BTCC-PRO-EXCHANGE-SERVER|122=20151105-07:25:05.780|1=1446708291512000:Basic NjQ0NmZhODMtODAzZS00MmYwLTk4NmItZGZiMjczZTE4MTA3OmNjMWRhYmZjNjVhNjc2YWNjOGQyZDU5MzVlYmRlYzg3OGEzZjYxM2M=|11=7683cc3b-ed8c-4ba3-b5b5-1c092a1b7d27|38=1|40=2|44=3.1|54=1|55=XBTCNY|59=1|60=20151105-07:25:05.779|10=194|
8=FIX.4.4|9=86|35=2|34=24|49=BTCC-PRO-EXCHANGE-SERVER|52=20151105-07:25:10.707|56=CLIENT255|7=3|16=0|10=147|
8=FIX.4.4|9=339|35=D|34=3|43=Y|49=CLIENT255|52=20151105-07:25:09.747|56=BTCC-PRO-EXCHANGE-SERVER|122=20151105-07:25:00.773|1=1446708291512000:Basic NjQ0NmZhODMtODAzZS00MmYwLTk4NmItZGZiMjczZTE4MTA3OmNjMWRhYmZjNjVhNjc2YWNjOGQyZDU5MzVlYmRlYzg3OGEzZjYxM2M=|11=a334c015-25e8-4208-8f1a-03850cc431a2|38=1|40=2|44=2.1|54=1|55=XBTCNY|59=1|60=20151105-07:25:00.773|10=137|
8=FIX.4.4|9=339|35=D|34=4|43=Y|49=CLIENT255|52=20151105-07:25:09.748|56=BTCC-PRO-EXCHANGE-SERVER|122=20151105-07:25:05.780|1=1446708291512000:Basic NjQ0NmZhODMtODAzZS00MmYwLTk4NmItZGZiMjczZTE4MTA3OmNjMWRhYmZjNjVhNjc2YWNjOGQyZDU5MzVlYmRlYzg3OGEzZjYxM2M=|11=7683cc3b-ed8c-4ba3-b5b5-1c092a1b7d27|38=1|40=2|44=3.1|54=1|55=XBTCNY|59=1|60=20151105-07:25:05.779|10=201|
8=FIX.4.4|9=86|35=2|34=25|49=BTCC-PRO-EXCHANGE-SERVER|52=20151105-07:25:10.862|56=CLIENT255|7=3|16=0|10=150|
8=FIX.4.4|9=339|35=D|34=3|43=Y|49=CLIENT255|52=20151105-07:25:09.872|56=BTCC-PRO-EXCHANGE-SERVER|122=20151105-07:25:00.773|1=1446708291512000:Basic NjQ0NmZhODMtODAzZS00MmYwLTk4NmItZGZiMjczZTE4MTA3OmNjMWRhYmZjNjVhNjc2YWNjOGQyZDU5MzVlYmRlYzg3OGEzZjYxM2M=|11=a334c015-25e8-4208-8f1a-03850cc431a2|38=1|40=2|44=2.1|54=1|55=XBTCNY|59=1|60=20151105-07:25:00.773|10=136|
8=FIX.4.4|9=339|35=D|34=4|43=Y|49=CLIENT255|52=20151105-07:25:09.873|56=BTCC-PRO-EXCHANGE-SERVER|122=20151105-07:25:05.780|1=1446708291512000:Basic NjQ0NmZhODMtODAzZS00MmYwLTk4NmItZGZiMjczZTE4MTA3OmNjMWRhYmZjNjVhNjc2YWNjOGQyZDU5MzVlYmRlYzg3OGEzZjYxM2M=|11=7683cc3b-ed8c-4ba3-b5b5-1c092a1b7d27|38=1|40=2|44=3.1|54=1|55=XBTCNY|59=1|60=20151105-07:25:05.779|10=200|
8=FIX.4.4|9=86|35=2|34=26|49=BTCC-PRO-EXCHANGE-SERVER|52=20151105-07:25:10.952|56=CLIENT255|7=3|16=0|10=151|
8=FIX.4.4|9=339|35=D|34=3|43=Y|49=CLIENT255|52=20151105-07:25:09.966|56=BTCC-PRO-EXCHANGE-SERVER|122=20151105-07:25:00.773|1=1446708291512000:Basic NjQ0NmZhODMtODAzZS00MmYwLTk4NmItZGZiMjczZTE4MTA3OmNjMWRhYmZjNjVhNjc2YWNjOGQyZDU5MzVlYmRlYzg3OGEzZjYxM2M=|11=a334c015-25e8-4208-8f1a-03850cc431a2|38=1|40=2|44=2.1|54=1|55=XBTCNY|59=1|60=20151105-07:25:00.773|10=140|
8=FIX.4.4|9=339|35=D|34=4|43=Y|49=CLIENT255|52=20151105-07:25:09.967|56=BTCC-PRO-EXCHANGE-SERVER|122=20151105-07:25:05.780|1=1446708291512000:Basic NjQ0NmZhODMtODAzZS00MmYwLTk4NmItZGZiMjczZTE4MTA3OmNjMWRhYmZjNjVhNjc2YWNjOGQyZDU5MzVlYmRlYzg3OGEzZjYxM2M=|11=7683cc3b-ed8c-4ba3-b5b5-1c092a1b7d27|38=1|40=2|44=3.1|54=1|55=XBTCNY|59=1|60=20151105-07:25:05.779|10=204|
8=FIX.4.4|9=86|35=2|34=27|49=BTCC-PRO-EXCHANGE-SERVER|52=20151105-07:25:11.048|56=CLIENT255|7=3|16=0|10=149|
8=FIX.4.4|9=339|35=D|34=3|43=Y|49=CLIENT255|52=20151105-07:25:10.057|56=BTCC-PRO-EXCHANGE-SERVER|122=20151105-07:25:00.773|1=1446708291512000:Basic NjQ0NmZhODMtODAzZS00MmYwLTk4NmItZGZiMjczZTE4MTA3OmNjMWRhYmZjNjVhNjc2YWNjOGQyZDU5MzVlYmRlYzg3OGEzZjYxM2M=|11=a334c015-25e8-4208-8f1a-03850cc431a2|38=1|40=2|44=2.1|54=1|55=XBTCNY|59=1|60=20151105-07:25:00.773|10=123|
8=FIX.4.4|9=339|35=D|34=4|43=Y|49=CLIENT255|52=20151105-07:25:10.058|56=BTCC-PRO-EXCHANGE-SERVER|122=20151105-07:25:05.780|1=1446708291512000:Basic NjQ0NmZhODMtODAzZS00MmYwLTk4NmItZGZiMjczZTE4MTA3OmNjMWRhYmZjNjVhNjc2YWNjOGQyZDU5MzVlYmRlYzg3OGEzZjYxM2M=|11=7683cc3b-ed8c-4ba3-b5b5-1c092a1b7d27|38=1|40=2|44=3.1|54=1|55=XBTCNY|59=1|60=20151105-07:25:05.779|10=187|
8=FIX.4.4|9=86|35=2|34=28|49=BTCC-PRO-EXCHANGE-SERVER|52=20151105-07:25:11.135|56=CLIENT255|7=3|16=0|10=147|
